{
  "_format": "hh-sol-artifact-1",
  "contractName": "Lock",
  "sourceName": "contracts/Lock.sol",
  "abi": [
    {
      "inputs": [],
      "stateMutability": "nonpayable",
      "type": "constructor"
    },
    {
      "inputs": [],
      "name": "owner",
      "outputs": [
        {
          "internalType": "address payable",
          "name": "",
          "type": "address"
        }
      ],
      "stateMutability": "view",
      "type": "function"
    },
    {
      "inputs": [],
      "name": "withdraw",
      "outputs": [],
      "stateMutability": "nonpayable",
      "type": "function"
    }
  ],
  "bytecode": "0x6080806040523461002757600080546001600160a01b0319163317905560fc908161002d8239f35b600080fdfe60806040526004361015601157600080fd5b6000803560e01c80633ccfd60b14608157638da5cb5b14603057600080fd5b34607e57807ffffffffffffffffffffffffffffffffffffffffffffffffffffffffffffffffc360112607e5773ffffffffffffffffffffffffffffffffffffffff6020915416604051908152f35b80fd5b5034607e57807ffffffffffffffffffffffffffffffffffffffffffffffffffffffffffffffffc360112607e578080808073ffffffffffffffffffffffffffffffffffffffff815416479082821560e7575bf11560db5780f35b604051903d90823e3d90fd5b506108fc60d356fea164736f6c6343000813000a",
  "linkReferences": {},
  "deployedLinkReferences": {}
}