{
  "address": "0x628f2234372e07275c9104D9802c25893b593624",
  "abi": [
    {
      "inputs": [],
      "stateMutability": "nonpayable",
      "type": "constructor"
    },
    {
      "inputs": [],
      "name": "owner",
      "outputs": [
        {
          "internalType": "address payable",
          "name": "",
          "type": "address"
        }
      ],
      "stateMutability": "view",
      "type": "function"
    },
    {
      "inputs": [],
      "name": "withdraw",
      "outputs": [],
      "stateMutability": "nonpayable",
      "type": "function"
    }
  ],
  "transactionHash": "0x5c348dc515a00e4a058b736dea1138150caa49bcf660dc410d000bcdd363f2e5",
  "args": [],
  "numDeployments": 1,
  "solcInputHash": "83489b4513ab4f94b8bb1071d445b6ee",
  "bytecode": "0x6080806040523461002757600080546001600160a01b0319163317905560fc908161002d8239f35b600080fdfe60806040526004361015601157600080fd5b6000803560e01c80633ccfd60b14608157638da5cb5b14603057600080fd5b34607e57807ffffffffffffffffffffffffffffffffffffffffffffffffffffffffffffffffc360112607e5773ffffffffffffffffffffffffffffffffffffffff6020915416604051908152f35b80fd5b5034607e57807ffffffffffffffffffffffffffffffffffffffffffffffffffffffffffffffffc360112607e578080808073ffffffffffffffffffffffffffffffffffffffff815416479082821560e7575bf11560db5780f35b604051903d90823e3d90fd5b506108fc60d356fea164736f6c6343000812000a",
  "devdoc": {
    "kind": "dev",
    "methods": {},
    "version": 1
  },
  "userdoc": {
    "kind": "user",
    "methods": {},
    "version": 1
  },
  "storageLayout": {
    "storage": [
      {
        "astId": 3,
        "contract": "contracts/Lock.sol:Lock",
        "label": "owner",
        "offset": 0,
        "slot": "0",
        "type": "t_address_payable"
      }
    ],
    "types": {
      "t_address_payable": {
        "encoding": "inplace",
        "label": "address payable",
        "numberOfBytes": "20"
      }
    }
  }
}