{
  "_format": "hh-sol-artifact-1",
  "contractName": "UserOpLib",
  "sourceName": "contracts/aa/utils/UserOp.sol",
  "abi": [
    {
      "inputs": [
        {
          "internalType": "bytes",
          "name": "data",
          "type": "bytes"
        }
      ],
      "name": "calldataKeccak",
      "outputs": [
        {
          "internalType": "bytes32",
          "name": "ret",
          "type": "bytes32"
        }
      ],
      "stateMutability": "pure",
      "type": "function"
    }
  ],
  "bytecode": "0x608080604052346100195760b5908161001f823930815050f35b600080fdfe60806040526004361015601157600080fd5b6000803560e01c631d43458514602657600080fd5b60207ffffffffffffffffffffffffffffffffffffffffffffffffffffffffffffffffc36011260a5576004359067ffffffffffffffff9081831160a5573660238401121560a557826004013591821160a557366024838501011160a5575080602460a193016080376080206040519081529081906020820190565b0390f35b80fdfea164736f6c6343000813000a",
  "linkReferences": {},
  "deployedLinkReferences": {}
}