{
  "_format": "hh-sol-artifact-1",
  "contractName": "AccountFactory",
  "sourceName": "contracts/aa/AccountFactory.sol",
  "abi": [
    {
      "inputs": [],
      "stateMutability": "nonpayable",
      "type": "constructor"
    },
    {
      "inputs": [],
      "name": "accountImplementation",
      "outputs": [
        {
          "internalType": "contract Account",
          "name": "",
          "type": "address"
        }
      ],
      "stateMutability": "view",
      "type": "function"
    },
    {
      "inputs": [
        {
          "internalType": "uint256",
          "name": "pubKeyX",
          "type": "uint256"
        },
        {
          "internalType": "uint256",
          "name": "pubKeyY",
          "type": "uint256"
        },
        {
          "internalType": "string",
          "name": "keyId",
          "type": "string"
        },
        {
          "internalType": "uint256",
          "name": "salt",
          "type": "uint256"
        }
      ],
      "name": "createAccount",
      "outputs": [
        {
          "internalType": "contract Account",
          "name": "ret",
          "type": "address"
        }
      ],
      "stateMutability": "nonpayable",
      "type": "function"
    },
    {
      "inputs": [
        {
          "internalType": "uint256",
          "name": "pubKeyX",
          "type": "uint256"
        },
        {
          "internalType": "uint256",
          "name": "pubKeyY",
          "type": "uint256"
        },
        {
          "internalType": "string",
          "name": "keyId",
          "type": "string"
        },
        {
          "internalType": "uint256",
          "name": "salt",
          "type": "uint256"
        }
      ],
      "name": "getAddress",
      "outputs": [
        {
          "internalType": "address",
          "name": "",
          "type": "address"
        }
      ],
      "stateMutability": "view",
      "type": "function"
    }
  ],
  "bytecode": "0x60a0806040523461007e576124778181016001600160401b03811183821017610068578291610a36833903906000f0801561005c576080526040516109b29081610084823960805181818160e6015281816103f301526105260152f35b6040513d6000823e3d90fd5b634e487b7160e01b600052604160045260246000fd5b600080fdfe608080604052600436101561001357600080fd5b600090813560e01c90816311464fbe1461009c57508063c8cb55ae1461007f5763cac8cfc21461004257600080fd5b3461007c57602061005e6100553661019a565b92919091610450565b73ffffffffffffffffffffffffffffffffffffffff60405191168152f35b80fd5b503461007c57602061005e6100933661019a565b9291909161031a565b90503461010a57817ffffffffffffffffffffffffffffffffffffffffffffffffffffffffffffffffc36011261010a5760209073ffffffffffffffffffffffffffffffffffffffff7f0000000000000000000000000000000000000000000000000000000000000000168152f35b5080fd5b6060810190811067ffffffffffffffff82111761012a57604052565b7f4e487b7100000000000000000000000000000000000000000000000000000000600052604160045260246000fd5b90601f7fffffffffffffffffffffffffffffffffffffffffffffffffffffffffffffffe0910116810190811067ffffffffffffffff82111761012a57604052565b60807ffffffffffffffffffffffffffffffffffffffffffffffffffffffffffffffffc82011261025357600435916024359167ffffffffffffffff604435818111610253578260238201121561025357806004013591821161012a576040519261022c60207fffffffffffffffffffffffffffffffffffffffffffffffffffffffffffffffe0601f8601160185610159565b82845260248383010111610253578160009260246020930183860137830101529060643590565b600080fd5b60005b83811061026b5750506000910152565b818101518382015260200161025b565b907fffffffffffffffffffffffffffffffffffffffffffffffffffffffffffffffe0601f6020936102b781518092818752878088019101610258565b0116010190565b608060406102ea936020845280516020850152602081015182850152015191606080820152019061027b565b90565b60409073ffffffffffffffffffffffffffffffffffffffff6102ea9493168152816020820152019061027b565b928092610342926040519561032e8761010e565b808752816020880152826040880152610450565b803b61043457506103b1610385926040519384917f759a68c0000000000000000000000000000000000000000000000000000000006020840152602483016102be565b037fffffffffffffffffffffffffffffffffffffffffffffffffffffffffffffffe08101845283610159565b604051610403928382019382851067ffffffffffffffff86111761012a578291610419916105a3843973ffffffffffffffffffffffffffffffffffffffff95867f000000000000000000000000000000000000000000000000000000000000000016906102ed565b03906000f58015610428571690565b6040513d6000823e3d90fd5b73ffffffffffffffffffffffffffffffffffffffff1692915050565b92600b92916055946040938451916104678361010e565b8252602092838301528482015261057e61058a83610403936104d088519161049184880184610159565b868352838301966105a3883989519182917f759a68c00000000000000000000000000000000000000000000000000000000086840152602483016102be565b036105017fffffffffffffffffffffffffffffffffffffffffffffffffffffffffffffffe091828101845283610159565b6105588a51918261054c8782019573ffffffffffffffffffffffffffffffffffffffff7f000000000000000000000000000000000000000000000000000000000000000016876102ed565b03908101835282610159565b895195869361056f868601998a9251928391610258565b84019151809386840190610258565b01038084520182610159565b5190208351938401528201523081520160ff8153209056fe604060808152610403908138038061001681610218565b93843982019181818403126102135780516001600160a01b038116808203610213576020838101516001600160401b0394919391858211610213570186601f820112156102135780519061007161006c83610253565b610218565b918083528583019886828401011161021357888661008f930161026e565b813b156101b9577f360894a13ba1a3210667c828492db98dca3e2076cc3735a920a3ca505d382bbc80546001600160a01b031916841790556000927fbc7cd75a20ee27fd9adebab32041f755214dbc6bffa90cc0225b39da2e5c2d3b8480a28051158015906101b2575b61010b575b855160be90816103458239f35b855194606086019081118682101761019e578697849283926101889952602788527f416464726573733a206c6f772d6c6576656c2064656c65676174652063616c6c87890152660819985a5b195960ca1b8a8901525190845af4913d15610194573d9061017a61006c83610253565b91825281943d92013e610291565b508038808080806100fe565b5060609250610291565b634e487b7160e01b84526041600452602484fd5b50826100f9565b855162461bcd60e51b815260048101859052602d60248201527f455243313936373a206e657720696d706c656d656e746174696f6e206973206e60448201526c1bdd08184818dbdb9d1c9858dd609a1b6064820152608490fd5b600080fd5b6040519190601f01601f191682016001600160401b0381118382101761023d57604052565b634e487b7160e01b600052604160045260246000fd5b6001600160401b03811161023d57601f01601f191660200190565b60005b8381106102815750506000910152565b8181015183820152602001610271565b919290156102f357508151156102a5575090565b3b156102ae5790565b60405162461bcd60e51b815260206004820152601d60248201527f416464726573733a2063616c6c20746f206e6f6e2d636f6e74726163740000006044820152606490fd5b8251909150156103065750805190602001fd5b6044604051809262461bcd60e51b825260206004830152610336815180928160248601526020868601910161026e565b601f01601f19168101030190fdfe60806040523615605f5773ffffffffffffffffffffffffffffffffffffffff7f360894a13ba1a3210667c828492db98dca3e2076cc3735a920a3ca505d382bbc54166000808092368280378136915af43d82803e15605b573d90f35b3d90fd5b73ffffffffffffffffffffffffffffffffffffffff7f360894a13ba1a3210667c828492db98dca3e2076cc3735a920a3ca505d382bbc54166000808092368280378136915af43d82803e15605b573d90f3fea164736f6c6343000813000aa164736f6c6343000813000a608080604052346100c1576000549060ff8260081c1661006f575060ff80821603610034575b6040516123b090816100c78239f35b60ff90811916176000557f7f26b83ff96e1f2b6a682f133852f6798a09c465da95921460cefb3847402498602060405160ff8152a138610025565b62461bcd60e51b815260206004820152602760248201527f496e697469616c697a61626c653a20636f6e747261637420697320696e697469604482015266616c697a696e6760c81b6064820152608490fd5b600080fdfe6080604052600436101561001b575b361561001957600080fd5b005b6000803560e01c908163759a68c01461007e575080638fb4107214610079578063b627e20f14610074578063be9ef8431461006f578063f0f05cef1461006a5763fd5c8d720361000e5761043f565b610429565b610398565b610343565b610286565b3461012e577ffffffffffffffffffffffffffffffffffffffffffffffffffffffffffffffffc6020813601126101225760043567ffffffffffffffff9182821161012a576060908236030112610126576100d860e0604052565b8060040135608052602481013560a052604481013591821161012657013660238201121561012257610114903690602460048201359101610227565b60c05261011f6105b6565b80f35b5080fd5b8280fd5b8380fd5b80fd5b7f4e487b7100000000000000000000000000000000000000000000000000000000600052604160045260246000fd5b6060810190811067ffffffffffffffff82111761017c57604052565b610131565b6080810190811067ffffffffffffffff82111761017c57604052565b90601f7fffffffffffffffffffffffffffffffffffffffffffffffffffffffffffffffe0910116810190811067ffffffffffffffff82111761017c57604052565b604051906101eb82610160565b565b67ffffffffffffffff811161017c57601f017fffffffffffffffffffffffffffffffffffffffffffffffffffffffffffffffe01660200190565b929192610233826101ed565b91610241604051938461019d565b82948184528183011161025e578281602093846000960137010152565b600080fd5b60005b8381106102765750506000910152565b8181015183820152602001610266565b3461025e5760007ffffffffffffffffffffffffffffffffffffffffffffffffffffffffffffffffc36011261025e576060604080516102c481610160565b60008152600060208201520152604060a06102dd6104b2565b7fffffffffffffffffffffffffffffffffffffffffffffffffffffffffffffffe0601f84519485936020855280516020860152602081015182860152015160608085015261033a8151809281608088015260208888019101610263565b01168101030190f35b3461025e5760007ffffffffffffffffffffffffffffffffffffffffffffffffffffffffffffffffc36011261025e57602073ffffffffffffffffffffffffffffffffffffffff60005460101c16604051908152f35b3461025e5760007ffffffffffffffffffffffffffffffffffffffffffffffffffffffffffffffffc36011261025e57602060ff600454166040519015158152f35b7ffffffffffffffffffffffffffffffffffffffffffffffffffffffffffffffffc9060208282011261025e576004359167ffffffffffffffff831161025e578260809203011261025e5760040190565b3461025e5761001961043a366103d9565b610be6565b3461025e576020610457610452366103d9565b611a18565b604051908152f35b90600182811c921680156104a8575b602083101461047957565b7f4e487b7100000000000000000000000000000000000000000000000000000000600052602260045260246000fd5b91607f169161046e565b604051906104bf82610160565b816001908154815260025460209081830152604051928391600091600354906104e78261045f565b808652918181169081156105795750600114610514575b5050506040929161051091038461019d565b0152565b909493925060036000527fc2575a0e9e593c00f959f8c92f12db2869c3395a3b0502d05e2516446f71f85b946000915b8183106105615750939450919250908201018161051060406104fe565b86548884018501529586019587945091830191610544565b7fffffffffffffffffffffffffffffffffffffffffffffffffffffffffffffff0016848701525050151560051b83010190508161051060406104fe565b60005460ff8160081c161580918192610751575b8115610731575b50156106ad578061060860017fffffffffffffffffffffffffffffffffffffffffffffffffffffffffffffff006000541617600055565b610677575b61061561075f565b61061b57565b6106487fffffffffffffffffffffffffffffffffffffffffffffffffffffffffffff00ff60005416600055565b604051600181527f7f26b83ff96e1f2b6a682f133852f6798a09c465da95921460cefb384740249890602090a1565b6106a86101007fffffffffffffffffffffffffffffffffffffffffffffffffffffffffffff00ff6000541617600055565b61060d565b60846040517f08c379a000000000000000000000000000000000000000000000000000000000815260206004820152602e60248201527f496e697469616c697a61626c653a20636f6e747261637420697320616c72656160448201527f647920696e697469616c697a65640000000000000000000000000000000000006064820152fd5b303b15915081610743575b50386105d1565b6001915060ff16143861073c565b600160ff82161091506105ca565b6001807fffffffffffffffffffffffffffffffffffffffffffffffffffffffffffffff006004541617600455608051815560a05160025560c0519081519167ffffffffffffffff831161017c576107c0836107bb60035461045f565b6108ff565b60209081601f8511600114610839575060009184918261080e575b50507fffffffffffffffffffffffffffffffffffffffffffffffffffffffffffffffff91921b9260031b1c191617600355565b015191507fffffffffffffffffffffffffffffffffffffffffffffffffffffffffffffffff386107db565b9190847fffffffffffffffffffffffffffffffffffffffffffffffffffffffffffffffe08195961661088d60036000527fc2575a0e9e593c00f959f8c92f12db2869c3395a3b0502d05e2516446f71f85b90565b946000905b888383106108e557505050106108ae575b505050811b01600355565b01517fffffffffffffffffffffffffffffffffffffffffffffffffffffffffffffffff60f88460031b161c191690553880806108a3565b858701518855909601959485019487935090810190610892565b601f811161090b575050565b600090600382527fc2575a0e9e593c00f959f8c92f12db2869c3395a3b0502d05e2516446f71f85b906020601f850160051c83019410610966575b601f0160051c01915b82811061095b57505050565b81815560010161094f565b9092508290610946565b8051600190815560406020928381015160025501519182519267ffffffffffffffff841161017c576109a7846107bb60035461045f565b81601f85116001146109f1575060009184918261080e5750507fffffffffffffffffffffffffffffffffffffffffffffffffffffffffffffffff91921b9260031b1c191617600355565b9190847fffffffffffffffffffffffffffffffffffffffffffffffffffffffffffffffe081959616610a4560036000527fc2575a0e9e593c00f959f8c92f12db2869c3395a3b0502d05e2516446f71f85b90565b946000905b88838310610a6557505050106108ae57505050811b01600355565b858701518855909601959485019487935090810190610a4a565b15610a8657565b60846040517f08c379a000000000000000000000000000000000000000000000000000000000815260206004820152602660248201527f4163636f756e743a205369676e617475726520766572696669636174696f6e2060448201527f6661696c656400000000000000000000000000000000000000000000000000006064820152fd5b15610b1157565b60846040517f08c379a000000000000000000000000000000000000000000000000000000000815260206004820152602260248201527f4163636f756e743a204e6f6e636520766572696669636174696f6e206661696c60448201527f65640000000000000000000000000000000000000000000000000000000000006064820152fd5b9035907fffffffffffffffffffffffffffffffffffffffffffffffffffffffffffffffe18136030182121561025e570180359067ffffffffffffffff821161025e5760200191813603831361025e57565b610bf8610bf282611431565b15610a7f565b610c0a610c04826117da565b15610b0a565b80358015610c805760018114610c665760028114610c4c57600314610c2c5750565b610c47610c408260206101eb940190610b95565b3691610227565b610e3b565b50610c61610c408260206101eb940190610b95565b610cbe565b50610c7b610c408260206101eb940190610b95565b6112c8565b50610c95610c408260206101eb940190610b95565b610fa3565b604051906020820182811067ffffffffffffffff82111761017c5760405260008252565b600160ff60045416151503610d72576014610d45910151610cfd610ce06101de565b6000815260006020820152610cf3610c9a565b6040820152610970565b7fffffffffffffffffffff0000000000000000000000000000000000000000ffff75ffffffffffffffffffffffffffffffffffffffff00006000549260101b16911617600055565b6101eb7fffffffffffffffffffffffffffffffffffffffffffffffffffffffffffffff0060045416600455565b60846040517f08c379a000000000000000000000000000000000000000000000000000000000815260206004820152602660248201527f4163636f756e743a20416c72656164792061646472657373206f776e6572206560448201527f6e61626c656400000000000000000000000000000000000000000000000000006064820152fd5b81601f8201121561025e578051610e0c816101ed565b92610e1a604051948561019d565b8184526020828401011161025e57610e389160208085019101610263565b90565b60ff60045416610f0157805181019060608183031261025e5760208101519060408101519060608101519067ffffffffffffffff821161025e576020610e899281610ed19701920101610df6565b90610e926101de565b92835260208301526040820152610ecc7fffffffffffffffffffff0000000000000000000000000000000000000000ffff60005416600055565b610970565b6101eb60017fffffffffffffffffffffffffffffffffffffffffffffffffffffffffffffff006004541617600455565b60846040517f08c379a000000000000000000000000000000000000000000000000000000000815260206004820152602660248201527f4163636f756e743a20416c726561647920706173736b6579206f776e6572206560448201527f6e61626c656400000000000000000000000000000000000000000000000000006064820152fd5b73ffffffffffffffffffffffffffffffffffffffff81160361025e57565b8051810160608282031261025e57602082015190610fc082610f85565b604083015190606084015167ffffffffffffffff811161025e576101eb946020611004928173ffffffffffffffffffffffffffffffffffffffff9501920101610df6565b9216611411565b67ffffffffffffffff811161017c5760051b60200190565b81601f8201121561025e5780519161103a8361100b565b92611048604051948561019d565b808452602092838086019260051b82010192831161025e578301905b828210611072575050505090565b81518152908301908301611064565b9080601f8301121561025e578151906110998261100b565b926110a7604051948561019d565b828452602092838086019160051b8301019280841161025e57848301915b8483106110d55750505050505090565b825167ffffffffffffffff811161025e5786916110f784848094890101610df6565b8152019201916110c5565b909160608284031261025e5781519167ffffffffffffffff9283811161025e5781019380601f8601121561025e57845161113b8161100b565b90611149604051928361019d565b808252602096878084019260051b8201019184831161025e5788809201905b8382106111a157505050509482015184811161025e578161118a918401611023565b93604083015190811161025e57610e389201611081565b82809183516111af81610f85565b815201910190611168565b156111c157565b60646040517f08c379a000000000000000000000000000000000000000000000000000000000815260206004820152601360248201527f77726f6e67206172726179206c656e67746873000000000000000000000000006044820152fd5b7f4e487b7100000000000000000000000000000000000000000000000000000000600052601160045260246000fd5b7fffffffffffffffffffffffffffffffffffffffffffffffffffffffffffffffff811461127b5760010190565b61121f565b7f4e487b7100000000000000000000000000000000000000000000000000000000600052603260045260246000fd5b80518210156112c35760209160051b010190565b611280565b6112db9060208082518301019101611102565b9291906112f58251855180911490816113a1575b506111ba565b8051611357575060005b8151811015611351578061134761133661131c61134c94866112af565b5173ffffffffffffffffffffffffffffffffffffffff1690565b61134083886112af565b51906113c0565b61124e565b6112ff565b50509050565b929060005b815181101561139a578061134761137961131c61139594866112af565b61138383896112af565b5161138e84886112af565b5191611411565b61135c565b5050509050565b83518015925082156113b6575b5050386112ef565b14905038806113ae565b600091829182602083519301915af13d15611409573d906113e0826101ed565b916113ee604051938461019d565b82523d6000602084013e5b156114015750565b602081519101fd5b6060906113f9565b916000928392602083519301915af13d15611409573d906113e0826101ed565b61143a81611a18565b60045460ff161561147e5761146c9061145d610c40846060611470960190610b95565b906114666104b2565b91611922565b1590565b61147957600090565b600190565b61151f6115066114cc73ffffffffffffffffffffffffffffffffffffffff937f19457468657265756d205369676e6564204d6573736167653a0a333200000000600052601c52603c60002090565b611500610c406114f560005473ffffffffffffffffffffffffffffffffffffffff9060101c1690565b966060810190610b95565b9061152b565b73ffffffffffffffffffffffffffffffffffffffff1690565b91160361147957600090565b610e389161153891611702565b919091611579565b6005111561154a57565b7f4e487b7100000000000000000000000000000000000000000000000000000000600052602160045260246000fd5b61158281611540565b8061158a5750565b61159381611540565b600181036115fa576040517f08c379a000000000000000000000000000000000000000000000000000000000815260206004820152601860248201527f45434453413a20696e76616c6964207369676e617475726500000000000000006044820152606490fd5b61160381611540565b6002810361166a576040517f08c379a000000000000000000000000000000000000000000000000000000000815260206004820152601f60248201527f45434453413a20696e76616c6964207369676e6174757265206c656e677468006044820152606490fd5b80611676600392611540565b1461167d57565b6040517f08c379a000000000000000000000000000000000000000000000000000000000815260206004820152602260248201527f45434453413a20696e76616c6964207369676e6174757265202773272076616c60448201527f75650000000000000000000000000000000000000000000000000000000000006064820152608490fd5b9060418151146000146117305761172c916020820151906060604084015193015160001a90611746565b9091565b5050600090600290565b6040513d6000823e3d90fd5b9291907f7fffffffffffffffffffffffffffffff5d576e7357a4501ddfe92f46681b20a083116117ce5791608094939160ff602094604051948552168484015260408301526060820152600093849182805260015afa156117c957815173ffffffffffffffffffffffffffffffffffffffff8116156117c3579190565b50600190565b61173a565b50505050600090600390565b6040600554910135146117ec57600190565b600090565b90604051916020830152602082526040820182811067ffffffffffffffff82111761017c57604052565b9061182e60209282815194859201610263565b0190565b6101eb91939293604051948591835161185381602096878088019101610263565b830161186782518093878085019101610263565b0161187a82518093868085019101610263565b0103808552018361019d565b60406101eb91939293815194816118a7879351809260208087019101610263565b820190602082015203602081018552018361019d565b156118c457565b60646040517f08c379a000000000000000000000000000000000000000000000000000000000815260206004820152600d60248201527f4b6579206e6f7420666f756e64000000000000000000000000000000000000006044820152fd5b90815182019060209260c08185850194031261025e5760408101519160608201519360808301519267ffffffffffffffff9384811161025e57828861196992840101610df6565b9360a082015181811161025e57838961198492850101610df6565b9360c083015191821161025e5788946119ba6119b56119af600097896119c0976119cc990101610df6565b936117f1565b611b56565b90611832565b6040519182809261181b565b039060025afa156117c95760006119e96119c08693835190611886565b039060025afa156117c957610e3893611a0e60005194820151151580611a13576118bd565b611c08565b6118bd565b611a256020820182610b95565b9081604051918237206040805192602084019281358452828501520135606083015260608252608082019082821067ffffffffffffffff83111761017c5781604052825190209160a081019283523060c082015260e04691015260608152611a8c81610181565b51902090565b60405190611a9f82610160565b604082527f6768696a6b6c6d6e6f707172737475767778797a303132333435363738392d5f6040837f4142434445464748494a4b4c4d4e4f505152535455565758595a61626364656660208201520152565b908160031b918083046008149015171561127b57565b90611b11826101ed565b611b1e604051918261019d565b8281527fffffffffffffffffffffffffffffffffffffffffffffffffffffffffffffffe0611b4c82946101ed565b0190602036910137565b805115611bff57611b65611a92565b611b8b611b7c611b758451611af1565b6006900490565b835160069006611bf157611b07565b91602083019181805101925b838310611ba5575050505090565b6004906003809401938451600190603f9082828260121c16880101518553828282600c1c16880101518386015382828260061c1688010151600286015316850101519082015301611b97565b611bfa9061124e565b611b07565b50610e38610c9a565b92919080158015611e23575b8015611df9575b8015611dcf575b611dc657610e3893611dbb611c35611fa0565b91611c3e6101de565b600081526000602082015260006040820152835260208151910151611c616101de565b918252602082015260016040820152611c80602084019180835261202f565b90611dac611c9660408601938085528351611fe5565b9260608601938452611d9c611d8c611cac6101de565b7f6b17d1f2e12c4247f8bce6e563a440f277037d812deb33a0f4a13945d898c29681527f4fe342e2fe1a7f9b8ee7eb4a7c0f9e162bce33576b315ececbb6406837bf51f5602082015260016040820152611d0f60808a0191808352875190611fe5565b60a08a0152611d218151855190611fe5565b60c08a0152611d338151885190611fe5565b60e08a0152611d42815161202f565b90611d576101008b0192808452885190611fe5565b6101208b0152611d6a8251865190611fe5565b6101408b0152611d7d8251895190611fe5565b6101608b015251905190611fe5565b6101808801948186525190611fe5565b6101a08701528251905190611fe5565b6101c085015251905190611fe5565b6101e0820152611e2b565b50505050600090565b507fffffffff00000000ffffffffffffffffbce6faada7179e84f3b9cac2fc632551821015611c22565b507fffffffff00000000ffffffffffffffffbce6faada7179e84f3b9cac2fc632551811015611c1b565b508115611c14565b939290917fffffffff00000000ffffffffffffffffbce6faada7179e84f3b9cac2fc63255190818410801590611f3b575b611f3157611e6a82916122f9565b809309918309600080918193608091825b611e9357505050611e8e9394955061204f565b501490565b85611f0f575b888160fe1c600c8460fc1c161780611ec6575b5050611ebf90600292831b921b92611f56565b9182611e7b565b611f029397611ebf976040611ef9611ee185879b989b611f45565b5151946020611ef08289611f45565b51015196611f45565b51015194612126565b9590945090928838611eac565b9294611f209194611f269396612243565b91612243565b949193909392611e99565b5060009450505050565b5081811015611e5c565b9060108110156112c35760051b0190565b801561127b577fffffffffffffffffffffffffffffffffffffffffffffffffffffffffffffffff0190565b60405190611f8e82610160565b60006040838281528260208201520152565b6040519061020080830183811067ffffffffffffffff82111761017c576040528260005b828110611fd057505050565b602090611fdb611f81565b8184015201611fc4565b61201291611ff1611f81565b50815191604060208201519101518251916040602085015194015194612126565b906040519261202084610160565b83526020830152604082015290565b6120129061203b611f81565b508051906040602082015191015191612243565b929190811561211a578160007fffffffff00000001000000000000000000000000ffffffffffffffffffffffff8481809611612110575b505060405191602083526020808401526020604084015260608301527fffffffff00000001000000000000000000000000fffffffffffffffffffffffd60808301528360a083015260208260c08160057ffffffffffffffffffffffffffffffffffffffffffffffffffffffffffffffffffa1561012e575082905181808280098097099509900990565b0691508338612086565b50509050600090600090565b93959391908161213857505050929190565b90929194958615612239577fffffffff00000001000000000000000000000000ffffffffffffffffffffffff9586858196958280838199099b818d999781868180808f9d888009809d099c8d99099c81878d0990099c099009930895818110612232575b03958280808960020980099281808481878d099381811061222b575b036002099481868009980996828089600209830890818110612224575b039b8c93600209099481811061221d575b03900997828910612214575b85918291089280099582871061220b575b960394030990565b95840195612203565b978501976121f2565b83016121e6565b83016121d5565b82016121b8565b830161219c565b5094505091929190565b9290917fffffffff00000001000000000000000000000000ffffffffffffffffffffffff809181858009958280808080808c87096004099a800960080992818080808089800980097fffffffff00000001000000000000000000000000fffffffffffffffffffffffc09928009600309088189600209828280098181106122f2575b038981809b106122eb575b0390098181106122e4575b03940960020990565b83016122db565b83016122d0565b83016122c5565b7fffffffff00000000ffffffffffffffffbce6faada7179e84f3b9cac2fc63255180821161239a575b60405191602083526020808401526020604084015260608301527fffffffff00000000ffffffffffffffffbce6faada7179e84f3b9cac2fc63254f608083015260a082015260208160c08160057ffffffffffffffffffffffffffffffffffffffffffffffffffffffffffffffffffa1561025e575190565b8091069061232256fea164736f6c6343000813000a",
  "linkReferences": {},
  "deployedLinkReferences": {}
}