{
  "_format": "hh-sol-artifact-1",
  "contractName": "AccountFactory",
  "sourceName": "contracts/aa/AccountFactory.sol",
  "abi": [
    {
      "inputs": [],
      "stateMutability": "nonpayable",
      "type": "constructor"
    },
    {
      "inputs": [],
      "name": "accountImplementation",
      "outputs": [
        {
          "internalType": "contract Account",
          "name": "",
          "type": "address"
        }
      ],
      "stateMutability": "view",
      "type": "function"
    },
    {
      "inputs": [
        {
          "internalType": "uint256",
          "name": "pubKeyX",
          "type": "uint256"
        },
        {
          "internalType": "uint256",
          "name": "pubKeyY",
          "type": "uint256"
        },
        {
          "internalType": "string",
          "name": "keyId",
          "type": "string"
        },
        {
          "internalType": "uint256",
          "name": "salt",
          "type": "uint256"
        }
      ],
      "name": "createAccount",
      "outputs": [
        {
          "internalType": "contract Account",
          "name": "ret",
          "type": "address"
        }
      ],
      "stateMutability": "nonpayable",
      "type": "function"
    },
    {
      "inputs": [
        {
          "internalType": "uint256",
          "name": "pubKeyX",
          "type": "uint256"
        },
        {
          "internalType": "uint256",
          "name": "pubKeyY",
          "type": "uint256"
        },
        {
          "internalType": "string",
          "name": "keyId",
          "type": "string"
        },
        {
          "internalType": "uint256",
          "name": "salt",
          "type": "uint256"
        }
      ],
      "name": "getAddress",
      "outputs": [
        {
          "internalType": "address",
          "name": "",
          "type": "address"
        }
      ],
      "stateMutability": "view",
      "type": "function"
    }
  ],
  "bytecode": "0x60a0806040523461007e576124758181016001600160401b03811183821017610068578291610a36833903906000f0801561005c576080526040516109b29081610084823960805181818160e6015281816103f301526105260152f35b6040513d6000823e3d90fd5b634e487b7160e01b600052604160045260246000fd5b600080fdfe608080604052600436101561001357600080fd5b600090813560e01c90816311464fbe1461009c57508063c8cb55ae1461007f5763cac8cfc21461004257600080fd5b3461007c57602061005e6100553661019a565b92919091610450565b73ffffffffffffffffffffffffffffffffffffffff60405191168152f35b80fd5b503461007c57602061005e6100933661019a565b9291909161031a565b90503461010a57817ffffffffffffffffffffffffffffffffffffffffffffffffffffffffffffffffc36011261010a5760209073ffffffffffffffffffffffffffffffffffffffff7f0000000000000000000000000000000000000000000000000000000000000000168152f35b5080fd5b6060810190811067ffffffffffffffff82111761012a57604052565b7f4e487b7100000000000000000000000000000000000000000000000000000000600052604160045260246000fd5b90601f7fffffffffffffffffffffffffffffffffffffffffffffffffffffffffffffffe0910116810190811067ffffffffffffffff82111761012a57604052565b60807ffffffffffffffffffffffffffffffffffffffffffffffffffffffffffffffffc82011261025357600435916024359167ffffffffffffffff604435818111610253578260238201121561025357806004013591821161012a576040519261022c60207fffffffffffffffffffffffffffffffffffffffffffffffffffffffffffffffe0601f8601160185610159565b82845260248383010111610253578160009260246020930183860137830101529060643590565b600080fd5b60005b83811061026b5750506000910152565b818101518382015260200161025b565b907fffffffffffffffffffffffffffffffffffffffffffffffffffffffffffffffe0601f6020936102b781518092818752878088019101610258565b0116010190565b608060406102ea936020845280516020850152602081015182850152015191606080820152019061027b565b90565b60409073ffffffffffffffffffffffffffffffffffffffff6102ea9493168152816020820152019061027b565b928092610342926040519561032e8761010e565b808752816020880152826040880152610450565b803b61043457506103b1610385926040519384917f759a68c0000000000000000000000000000000000000000000000000000000006020840152602483016102be565b037fffffffffffffffffffffffffffffffffffffffffffffffffffffffffffffffe08101845283610159565b604051610403928382019382851067ffffffffffffffff86111761012a578291610419916105a3843973ffffffffffffffffffffffffffffffffffffffff95867f000000000000000000000000000000000000000000000000000000000000000016906102ed565b03906000f58015610428571690565b6040513d6000823e3d90fd5b73ffffffffffffffffffffffffffffffffffffffff1692915050565b92600b92916055946040938451916104678361010e565b8252602092838301528482015261057e61058a83610403936104d088519161049184880184610159565b868352838301966105a3883989519182917f759a68c00000000000000000000000000000000000000000000000000000000086840152602483016102be565b036105017fffffffffffffffffffffffffffffffffffffffffffffffffffffffffffffffe091828101845283610159565b6105588a51918261054c8782019573ffffffffffffffffffffffffffffffffffffffff7f000000000000000000000000000000000000000000000000000000000000000016876102ed565b03908101835282610159565b895195869361056f868601998a9251928391610258565b84019151809386840190610258565b01038084520182610159565b5190208351938401528201523081520160ff8153209056fe604060808152610403908138038061001681610218565b93843982019181818403126102135780516001600160a01b038116808203610213576020838101516001600160401b0394919391858211610213570186601f820112156102135780519061007161006c83610253565b610218565b918083528583019886828401011161021357888661008f930161026e565b813b156101b9577f360894a13ba1a3210667c828492db98dca3e2076cc3735a920a3ca505d382bbc80546001600160a01b031916841790556000927fbc7cd75a20ee27fd9adebab32041f755214dbc6bffa90cc0225b39da2e5c2d3b8480a28051158015906101b2575b61010b575b855160be90816103458239f35b855194606086019081118682101761019e578697849283926101889952602788527f416464726573733a206c6f772d6c6576656c2064656c65676174652063616c6c87890152660819985a5b195960ca1b8a8901525190845af4913d15610194573d9061017a61006c83610253565b91825281943d92013e610291565b508038808080806100fe565b5060609250610291565b634e487b7160e01b84526041600452602484fd5b50826100f9565b855162461bcd60e51b815260048101859052602d60248201527f455243313936373a206e657720696d706c656d656e746174696f6e206973206e60448201526c1bdd08184818dbdb9d1c9858dd609a1b6064820152608490fd5b600080fd5b6040519190601f01601f191682016001600160401b0381118382101761023d57604052565b634e487b7160e01b600052604160045260246000fd5b6001600160401b03811161023d57601f01601f191660200190565b60005b8381106102815750506000910152565b8181015183820152602001610271565b919290156102f357508151156102a5575090565b3b156102ae5790565b60405162461bcd60e51b815260206004820152601d60248201527f416464726573733a2063616c6c20746f206e6f6e2d636f6e74726163740000006044820152606490fd5b8251909150156103065750805190602001fd5b6044604051809262461bcd60e51b825260206004830152610336815180928160248601526020868601910161026e565b601f01601f19168101030190fdfe60806040523615605f5773ffffffffffffffffffffffffffffffffffffffff7f360894a13ba1a3210667c828492db98dca3e2076cc3735a920a3ca505d382bbc54166000808092368280378136915af43d82803e15605b573d90f35b3d90fd5b73ffffffffffffffffffffffffffffffffffffffff7f360894a13ba1a3210667c828492db98dca3e2076cc3735a920a3ca505d382bbc54166000808092368280378136915af43d82803e15605b573d90f3fea164736f6c6343000813000aa164736f6c6343000813000a608080604052346100c1576000549060ff8260081c1661006f575060ff80821603610034575b6040516123ae90816100c78239f35b60ff90811916176000557f7f26b83ff96e1f2b6a682f133852f6798a09c465da95921460cefb3847402498602060405160ff8152a138610025565b62461bcd60e51b815260206004820152602760248201527f496e697469616c697a61626c653a20636f6e747261637420697320696e697469604482015266616c697a696e6760c81b6064820152608490fd5b600080fdfe6080604052600436101561001257600080fd5b6000803560e01c908163759a68c01461007a575080638fb4107214610075578063b627e20f14610070578063be9ef8431461006b578063f0f05cef146100665763fd5c8d721461006157600080fd5b61043d565b610425565b610394565b61033f565b610282565b3461012a577ffffffffffffffffffffffffffffffffffffffffffffffffffffffffffffffffc60208136011261011e5760043567ffffffffffffffff91828211610126576060908236030112610122576100d460e0604052565b8060040135608052602481013560a052604481013591821161012257013660238201121561011e57610110903690602460048201359101610223565b60c05261011b6105b4565b80f35b5080fd5b8280fd5b8380fd5b80fd5b7f4e487b7100000000000000000000000000000000000000000000000000000000600052604160045260246000fd5b6060810190811067ffffffffffffffff82111761017857604052565b61012d565b6080810190811067ffffffffffffffff82111761017857604052565b90601f7fffffffffffffffffffffffffffffffffffffffffffffffffffffffffffffffe0910116810190811067ffffffffffffffff82111761017857604052565b604051906101e78261015c565b565b67ffffffffffffffff811161017857601f017fffffffffffffffffffffffffffffffffffffffffffffffffffffffffffffffe01660200190565b92919261022f826101e9565b9161023d6040519384610199565b82948184528183011161025a578281602093846000960137010152565b600080fd5b60005b8381106102725750506000910152565b8181015183820152602001610262565b3461025a5760007ffffffffffffffffffffffffffffffffffffffffffffffffffffffffffffffffc36011261025a576060604080516102c08161015c565b60008152600060208201520152604060a06102d96104b0565b7fffffffffffffffffffffffffffffffffffffffffffffffffffffffffffffffe0601f845194859360208552805160208601526020810151828601520151606080850152610336815180928160808801526020888801910161025f565b01168101030190f35b3461025a5760007ffffffffffffffffffffffffffffffffffffffffffffffffffffffffffffffffc36011261025a57602073ffffffffffffffffffffffffffffffffffffffff60005460101c16604051908152f35b3461025a5760007ffffffffffffffffffffffffffffffffffffffffffffffffffffffffffffffffc36011261025a57602060ff600454166040519015158152f35b7ffffffffffffffffffffffffffffffffffffffffffffffffffffffffffffffffc9060208282011261025a576004359167ffffffffffffffff831161025a578260809203011261025a5760040190565b3461025a5761043b610436366103d5565b610be4565b005b3461025a576020610455610450366103d5565b611a16565b604051908152f35b90600182811c921680156104a6575b602083101461047757565b7f4e487b7100000000000000000000000000000000000000000000000000000000600052602260045260246000fd5b91607f169161046c565b604051906104bd8261015c565b816001908154815260025460209081830152604051928391600091600354906104e58261045d565b808652918181169081156105775750600114610512575b5050506040929161050e910384610199565b0152565b909493925060036000527fc2575a0e9e593c00f959f8c92f12db2869c3395a3b0502d05e2516446f71f85b946000915b81831061055f5750939450919250908201018161050e60406104fc565b86548884018501529586019587945091830191610542565b7fffffffffffffffffffffffffffffffffffffffffffffffffffffffffffffff0016848701525050151560051b83010190508161050e60406104fc565b60005460ff8160081c16158091819261074f575b811561072f575b50156106ab578061060660017fffffffffffffffffffffffffffffffffffffffffffffffffffffffffffffff006000541617600055565b610675575b61061361075d565b61061957565b6106467fffffffffffffffffffffffffffffffffffffffffffffffffffffffffffff00ff60005416600055565b604051600181527f7f26b83ff96e1f2b6a682f133852f6798a09c465da95921460cefb384740249890602090a1565b6106a66101007fffffffffffffffffffffffffffffffffffffffffffffffffffffffffffff00ff6000541617600055565b61060b565b60846040517f08c379a000000000000000000000000000000000000000000000000000000000815260206004820152602e60248201527f496e697469616c697a61626c653a20636f6e747261637420697320616c72656160448201527f647920696e697469616c697a65640000000000000000000000000000000000006064820152fd5b303b15915081610741575b50386105cf565b6001915060ff16143861073a565b600160ff82161091506105c8565b6001807fffffffffffffffffffffffffffffffffffffffffffffffffffffffffffffff006004541617600455608051815560a05160025560c0519081519167ffffffffffffffff8311610178576107be836107b960035461045d565b6108fd565b60209081601f8511600114610837575060009184918261080c575b50507fffffffffffffffffffffffffffffffffffffffffffffffffffffffffffffffff91921b9260031b1c191617600355565b015191507fffffffffffffffffffffffffffffffffffffffffffffffffffffffffffffffff386107d9565b9190847fffffffffffffffffffffffffffffffffffffffffffffffffffffffffffffffe08195961661088b60036000527fc2575a0e9e593c00f959f8c92f12db2869c3395a3b0502d05e2516446f71f85b90565b946000905b888383106108e357505050106108ac575b505050811b01600355565b01517fffffffffffffffffffffffffffffffffffffffffffffffffffffffffffffffff60f88460031b161c191690553880806108a1565b858701518855909601959485019487935090810190610890565b601f8111610909575050565b600090600382527fc2575a0e9e593c00f959f8c92f12db2869c3395a3b0502d05e2516446f71f85b906020601f850160051c83019410610964575b601f0160051c01915b82811061095957505050565b81815560010161094d565b9092508290610944565b8051600190815560406020928381015160025501519182519267ffffffffffffffff8411610178576109a5846107b960035461045d565b81601f85116001146109ef575060009184918261080c5750507fffffffffffffffffffffffffffffffffffffffffffffffffffffffffffffffff91921b9260031b1c191617600355565b9190847fffffffffffffffffffffffffffffffffffffffffffffffffffffffffffffffe081959616610a4360036000527fc2575a0e9e593c00f959f8c92f12db2869c3395a3b0502d05e2516446f71f85b90565b946000905b88838310610a6357505050106108ac57505050811b01600355565b858701518855909601959485019487935090810190610a48565b15610a8457565b60846040517f08c379a000000000000000000000000000000000000000000000000000000000815260206004820152602660248201527f4163636f756e743a205369676e617475726520766572696669636174696f6e2060448201527f6661696c656400000000000000000000000000000000000000000000000000006064820152fd5b15610b0f57565b60846040517f08c379a000000000000000000000000000000000000000000000000000000000815260206004820152602260248201527f4163636f756e743a204e6f6e636520766572696669636174696f6e206661696c60448201527f65640000000000000000000000000000000000000000000000000000000000006064820152fd5b9035907fffffffffffffffffffffffffffffffffffffffffffffffffffffffffffffffe18136030182121561025a570180359067ffffffffffffffff821161025a5760200191813603831361025a57565b610bf6610bf08261142f565b15610a7d565b610c08610c02826117d8565b15610b08565b80358015610c7e5760018114610c645760028114610c4a57600314610c2a5750565b610c45610c3e8260206101e7940190610b93565b3691610223565b610e39565b50610c5f610c3e8260206101e7940190610b93565b610cbc565b50610c79610c3e8260206101e7940190610b93565b6112c6565b50610c93610c3e8260206101e7940190610b93565b610fa1565b604051906020820182811067ffffffffffffffff8211176101785760405260008252565b600160ff60045416151503610d70576014610d43910151610cfb610cde6101da565b6000815260006020820152610cf1610c98565b604082015261096e565b7fffffffffffffffffffff0000000000000000000000000000000000000000ffff75ffffffffffffffffffffffffffffffffffffffff00006000549260101b16911617600055565b6101e77fffffffffffffffffffffffffffffffffffffffffffffffffffffffffffffff0060045416600455565b60846040517f08c379a000000000000000000000000000000000000000000000000000000000815260206004820152602660248201527f4163636f756e743a20416c72656164792061646472657373206f776e6572206560448201527f6e61626c656400000000000000000000000000000000000000000000000000006064820152fd5b81601f8201121561025a578051610e0a816101e9565b92610e186040519485610199565b8184526020828401011161025a57610e36916020808501910161025f565b90565b60ff60045416610eff57805181019060608183031261025a5760208101519060408101519060608101519067ffffffffffffffff821161025a576020610e879281610ecf9701920101610df4565b90610e906101da565b92835260208301526040820152610eca7fffffffffffffffffffff0000000000000000000000000000000000000000ffff60005416600055565b61096e565b6101e760017fffffffffffffffffffffffffffffffffffffffffffffffffffffffffffffff006004541617600455565b60846040517f08c379a000000000000000000000000000000000000000000000000000000000815260206004820152602660248201527f4163636f756e743a20416c726561647920706173736b6579206f776e6572206560448201527f6e61626c656400000000000000000000000000000000000000000000000000006064820152fd5b73ffffffffffffffffffffffffffffffffffffffff81160361025a57565b8051810160608282031261025a57602082015190610fbe82610f83565b604083015190606084015167ffffffffffffffff811161025a576101e7946020611002928173ffffffffffffffffffffffffffffffffffffffff9501920101610df4565b921661140f565b67ffffffffffffffff81116101785760051b60200190565b81601f8201121561025a5780519161103883611009565b926110466040519485610199565b808452602092838086019260051b82010192831161025a578301905b828210611070575050505090565b81518152908301908301611062565b9080601f8301121561025a5781519061109782611009565b926110a56040519485610199565b828452602092838086019160051b8301019280841161025a57848301915b8483106110d35750505050505090565b825167ffffffffffffffff811161025a5786916110f584848094890101610df4565b8152019201916110c3565b909160608284031261025a5781519167ffffffffffffffff9283811161025a5781019380601f8601121561025a57845161113981611009565b906111476040519283610199565b808252602096878084019260051b8201019184831161025a5788809201905b83821061119f57505050509482015184811161025a5781611188918401611021565b93604083015190811161025a57610e36920161107f565b82809183516111ad81610f83565b815201910190611166565b156111bf57565b60646040517f08c379a000000000000000000000000000000000000000000000000000000000815260206004820152601360248201527f77726f6e67206172726179206c656e67746873000000000000000000000000006044820152fd5b7f4e487b7100000000000000000000000000000000000000000000000000000000600052601160045260246000fd5b7fffffffffffffffffffffffffffffffffffffffffffffffffffffffffffffffff81146112795760010190565b61121d565b7f4e487b7100000000000000000000000000000000000000000000000000000000600052603260045260246000fd5b80518210156112c15760209160051b010190565b61127e565b6112d99060208082518301019101611100565b9291906112f382518551809114908161139f575b506111b8565b8051611355575060005b815181101561134f578061134561133461131a61134a94866112ad565b5173ffffffffffffffffffffffffffffffffffffffff1690565b61133e83886112ad565b51906113be565b61124c565b6112fd565b50509050565b929060005b8151811015611398578061134561137761131a61139394866112ad565b61138183896112ad565b5161138c84886112ad565b519161140f565b61135a565b5050509050565b83518015925082156113b4575b5050386112ed565b14905038806113ac565b600091829182602083519301915af13d15611407573d906113de826101e9565b916113ec6040519384610199565b82523d6000602084013e5b156113ff5750565b602081519101fd5b6060906113f7565b916000928392602083519301915af13d15611407573d906113de826101e9565b61143881611a16565b60045460ff161561147c5761146a9061145b610c3e84606061146e960190610b93565b906114646104b0565b91611920565b1590565b61147757600090565b600190565b61151d6115046114ca73ffffffffffffffffffffffffffffffffffffffff937f19457468657265756d205369676e6564204d6573736167653a0a333200000000600052601c52603c60002090565b6114fe610c3e6114f360005473ffffffffffffffffffffffffffffffffffffffff9060101c1690565b966060810190610b93565b90611529565b73ffffffffffffffffffffffffffffffffffffffff1690565b91160361147757600090565b610e369161153691611700565b919091611577565b6005111561154857565b7f4e487b7100000000000000000000000000000000000000000000000000000000600052602160045260246000fd5b6115808161153e565b806115885750565b6115918161153e565b600181036115f8576040517f08c379a000000000000000000000000000000000000000000000000000000000815260206004820152601860248201527f45434453413a20696e76616c6964207369676e617475726500000000000000006044820152606490fd5b6116018161153e565b60028103611668576040517f08c379a000000000000000000000000000000000000000000000000000000000815260206004820152601f60248201527f45434453413a20696e76616c6964207369676e6174757265206c656e677468006044820152606490fd5b8061167460039261153e565b1461167b57565b6040517f08c379a000000000000000000000000000000000000000000000000000000000815260206004820152602260248201527f45434453413a20696e76616c6964207369676e6174757265202773272076616c60448201527f75650000000000000000000000000000000000000000000000000000000000006064820152608490fd5b90604181511460001461172e5761172a916020820151906060604084015193015160001a90611744565b9091565b5050600090600290565b6040513d6000823e3d90fd5b9291907f7fffffffffffffffffffffffffffffff5d576e7357a4501ddfe92f46681b20a083116117cc5791608094939160ff602094604051948552168484015260408301526060820152600093849182805260015afa156117c757815173ffffffffffffffffffffffffffffffffffffffff8116156117c1579190565b50600190565b611738565b50505050600090600390565b6040600554910135146117ea57600190565b600090565b90604051916020830152602082526040820182811067ffffffffffffffff82111761017857604052565b9061182c6020928281519485920161025f565b0190565b6101e79193929360405194859183516118518160209687808801910161025f565b83016118658251809387808501910161025f565b016118788251809386808501910161025f565b01038085520183610199565b60406101e791939293815194816118a587935180926020808701910161025f565b8201906020820152036020810185520183610199565b156118c257565b60646040517f08c379a000000000000000000000000000000000000000000000000000000000815260206004820152600d60248201527f4b6579206e6f7420666f756e64000000000000000000000000000000000000006044820152fd5b90815182019060209260c08185850194031261025a5760408101519160608201519360808301519267ffffffffffffffff9384811161025a57828861196792840101610df4565b9360a082015181811161025a57838961198292850101610df4565b9360c083015191821161025a5788946119b86119b36119ad600097896119be976119ca990101610df4565b936117ef565b611b54565b90611830565b60405191828092611819565b039060025afa156117c75760006119e76119be8693835190611884565b039060025afa156117c757610e3693611a0c60005194820151151580611a11576118bb565b611c06565b6118bb565b611a236020820182610b93565b9081604051918237206040805192602084019281358452828501520135606083015260608252608082019082821067ffffffffffffffff8311176101785781604052825190209160a081019283523060c082015260e04691015260608152611a8a8161017d565b51902090565b60405190611a9d8261015c565b604082527f6768696a6b6c6d6e6f707172737475767778797a303132333435363738392d5f6040837f4142434445464748494a4b4c4d4e4f505152535455565758595a61626364656660208201520152565b908160031b918083046008149015171561127957565b90611b0f826101e9565b611b1c6040519182610199565b8281527fffffffffffffffffffffffffffffffffffffffffffffffffffffffffffffffe0611b4a82946101e9565b0190602036910137565b805115611bfd57611b63611a90565b611b89611b7a611b738451611aef565b6006900490565b835160069006611bef57611b05565b91602083019181805101925b838310611ba3575050505090565b6004906003809401938451600190603f9082828260121c16880101518553828282600c1c16880101518386015382828260061c1688010151600286015316850101519082015301611b95565b611bf89061124c565b611b05565b50610e36610c98565b92919080158015611e21575b8015611df7575b8015611dcd575b611dc457610e3693611db9611c33611f9e565b91611c3c6101da565b600081526000602082015260006040820152835260208151910151611c5f6101da565b918252602082015260016040820152611c7e602084019180835261202d565b90611daa611c9460408601938085528351611fe3565b9260608601938452611d9a611d8a611caa6101da565b7f6b17d1f2e12c4247f8bce6e563a440f277037d812deb33a0f4a13945d898c29681527f4fe342e2fe1a7f9b8ee7eb4a7c0f9e162bce33576b315ececbb6406837bf51f5602082015260016040820152611d0d60808a0191808352875190611fe3565b60a08a0152611d1f8151855190611fe3565b60c08a0152611d318151885190611fe3565b60e08a0152611d40815161202d565b90611d556101008b0192808452885190611fe3565b6101208b0152611d688251865190611fe3565b6101408b0152611d7b8251895190611fe3565b6101608b015251905190611fe3565b6101808801948186525190611fe3565b6101a08701528251905190611fe3565b6101c085015251905190611fe3565b6101e0820152611e29565b50505050600090565b507fffffffff00000000ffffffffffffffffbce6faada7179e84f3b9cac2fc632551821015611c20565b507fffffffff00000000ffffffffffffffffbce6faada7179e84f3b9cac2fc632551811015611c19565b508115611c12565b939290917fffffffff00000000ffffffffffffffffbce6faada7179e84f3b9cac2fc63255190818410801590611f39575b611f2f57611e6882916122f7565b809309918309600080918193608091825b611e9157505050611e8c9394955061204d565b501490565b85611f0d575b888160fe1c600c8460fc1c161780611ec4575b5050611ebd90600292831b921b92611f54565b9182611e79565b611f009397611ebd976040611ef7611edf85879b989b611f43565b5151946020611eee8289611f43565b51015196611f43565b51015194612124565b9590945090928838611eaa565b9294611f1e9194611f249396612241565b91612241565b949193909392611e97565b5060009450505050565b5081811015611e5a565b9060108110156112c15760051b0190565b8015611279577fffffffffffffffffffffffffffffffffffffffffffffffffffffffffffffffff0190565b60405190611f8c8261015c565b60006040838281528260208201520152565b6040519061020080830183811067ffffffffffffffff821117610178576040528260005b828110611fce57505050565b602090611fd9611f7f565b8184015201611fc2565b61201091611fef611f7f565b50815191604060208201519101518251916040602085015194015194612124565b906040519261201e8461015c565b83526020830152604082015290565b61201090612039611f7f565b508051906040602082015191015191612241565b9291908115612118578160007fffffffff00000001000000000000000000000000ffffffffffffffffffffffff848180961161210e575b505060405191602083526020808401526020604084015260608301527fffffffff00000001000000000000000000000000fffffffffffffffffffffffd60808301528360a083015260208260c08160057ffffffffffffffffffffffffffffffffffffffffffffffffffffffffffffffffffa1561012a575082905181808280098097099509900990565b0691508338612084565b50509050600090600090565b93959391908161213657505050929190565b90929194958615612237577fffffffff00000001000000000000000000000000ffffffffffffffffffffffff9586858196958280838199099b818d999781868180808f9d888009809d099c8d99099c81878d0990099c099009930895818110612230575b03958280808960020980099281808481878d0993818110612229575b036002099481868009980996828089600209830890818110612222575b039b8c93600209099481811061221b575b03900997828910612212575b859182910892800995828710612209575b960394030990565b95840195612201565b978501976121f0565b83016121e4565b83016121d3565b82016121b6565b830161219a565b5094505091929190565b9290917fffffffff00000001000000000000000000000000ffffffffffffffffffffffff809181858009958280808080808c87096004099a800960080992818080808089800980097fffffffff00000001000000000000000000000000fffffffffffffffffffffffc09928009600309088189600209828280098181106122f0575b038981809b106122e9575b0390098181106122e2575b03940960020990565b83016122d9565b83016122ce565b83016122c3565b7fffffffff00000000ffffffffffffffffbce6faada7179e84f3b9cac2fc632551808211612398575b60405191602083526020808401526020604084015260608301527fffffffff00000000ffffffffffffffffbce6faada7179e84f3b9cac2fc63254f608083015260a082015260208160c08160057ffffffffffffffffffffffffffffffffffffffffffffffffffffffffffffffffffa1561025a575190565b8091069061232056fea164736f6c6343000813000a",
  "linkReferences": {},
  "deployedLinkReferences": {}
}