{
  "contracts/aa/Account.sol": {
    "Account": {
      "abi": [
        {
          "inputs": [],
          "stateMutability": "nonpayable",
          "type": "constructor"
        },
        {
          "anonymous": false,
          "inputs": [
            {
              "indexed": false,
              "internalType": "uint8",
              "name": "version",
              "type": "uint8"
            }
          ],
          "name": "Initialized",
          "type": "event"
        },
        {
          "inputs": [
            {
              "components": [
                {
                  "internalType": "uint256",
                  "name": "functionType",
                  "type": "uint256"
                },
                {
                  "internalType": "bytes",
                  "name": "argument",
                  "type": "bytes"
                },
                {
                  "internalType": "uint256",
                  "name": "nonce",
                  "type": "uint256"
                },
                {
                  "internalType": "bytes",
                  "name": "signature",
                  "type": "bytes"
                }
              ],
              "internalType": "struct UserOp",
              "name": "userop",
              "type": "tuple"
            }
          ],
          "name": "entrypoint",
          "outputs": [],
          "stateMutability": "nonpayable",
          "type": "function"
        },
        {
          "inputs": [],
          "name": "getAddressOwner",
          "outputs": [
            {
              "internalType": "address",
              "name": "",
              "type": "address"
            }
          ],
          "stateMutability": "view",
          "type": "function"
        },
        {
          "inputs": [],
          "name": "getPassKeyOwner",
          "outputs": [
            {
              "components": [
                {
                  "internalType": "uint256",
                  "name": "pubKeyX",
                  "type": "uint256"
                },
                {
                  "internalType": "uint256",
                  "name": "pubKeyY",
                  "type": "uint256"
                },
                {
                  "internalType": "string",
                  "name": "keyId",
                  "type": "string"
                }
              ],
              "internalType": "struct PassKeyId",
              "name": "",
              "type": "tuple"
            }
          ],
          "stateMutability": "view",
          "type": "function"
        },
        {
          "inputs": [
            {
              "components": [
                {
                  "internalType": "uint256",
                  "name": "functionType",
                  "type": "uint256"
                },
                {
                  "internalType": "bytes",
                  "name": "argument",
                  "type": "bytes"
                },
                {
                  "internalType": "uint256",
                  "name": "nonce",
                  "type": "uint256"
                },
                {
                  "internalType": "bytes",
                  "name": "signature",
                  "type": "bytes"
                }
              ],
              "internalType": "struct UserOp",
              "name": "userop",
              "type": "tuple"
            }
          ],
          "name": "getUserOpHash",
          "outputs": [
            {
              "internalType": "bytes32",
              "name": "",
              "type": "bytes32"
            }
          ],
          "stateMutability": "view",
          "type": "function"
        },
        {
          "inputs": [
            {
              "components": [
                {
                  "internalType": "uint256",
                  "name": "pubKeyX",
                  "type": "uint256"
                },
                {
                  "internalType": "uint256",
                  "name": "pubKeyY",
                  "type": "uint256"
                },
                {
                  "internalType": "string",
                  "name": "keyId",
                  "type": "string"
                }
              ],
              "internalType": "struct PassKeyId",
              "name": "anOwner",
              "type": "tuple"
            }
          ],
          "name": "initialize",
          "outputs": [],
          "stateMutability": "nonpayable",
          "type": "function"
        },
        {
          "inputs": [],
          "name": "passKeyOwnerEnabled",
          "outputs": [
            {
              "internalType": "bool",
              "name": "",
              "type": "bool"
            }
          ],
          "stateMutability": "view",
          "type": "function"
        }
      ],
      "devdoc": {
        "events": {
          "Initialized(uint8)": {
            "details": "Triggered when the contract has been initialized or reinitialized."
          }
        },
        "kind": "dev",
        "methods": {},
        "version": 1
      },
      "evm": {
        "bytecode": {
          "linkReferences": {},
          "object": "608080604052346100c1576000549060ff8260081c1661006f575060ff80821603610034575b6040516123ae90816100c78239f35b60ff90811916176000557f7f26b83ff96e1f2b6a682f133852f6798a09c465da95921460cefb3847402498602060405160ff8152a138610025565b62461bcd60e51b815260206004820152602760248201527f496e697469616c697a61626c653a20636f6e747261637420697320696e697469604482015266616c697a696e6760c81b6064820152608490fd5b600080fdfe6080604052600436101561001257600080fd5b6000803560e01c908163759a68c01461007a575080638fb4107214610075578063b627e20f14610070578063be9ef8431461006b578063f0f05cef146100665763fd5c8d721461006157600080fd5b61043d565b610425565b610394565b61033f565b610282565b3461012a577ffffffffffffffffffffffffffffffffffffffffffffffffffffffffffffffffc60208136011261011e5760043567ffffffffffffffff91828211610126576060908236030112610122576100d460e0604052565b8060040135608052602481013560a052604481013591821161012257013660238201121561011e57610110903690602460048201359101610223565b60c05261011b6105b4565b80f35b5080fd5b8280fd5b8380fd5b80fd5b7f4e487b7100000000000000000000000000000000000000000000000000000000600052604160045260246000fd5b6060810190811067ffffffffffffffff82111761017857604052565b61012d565b6080810190811067ffffffffffffffff82111761017857604052565b90601f7fffffffffffffffffffffffffffffffffffffffffffffffffffffffffffffffe0910116810190811067ffffffffffffffff82111761017857604052565b604051906101e78261015c565b565b67ffffffffffffffff811161017857601f017fffffffffffffffffffffffffffffffffffffffffffffffffffffffffffffffe01660200190565b92919261022f826101e9565b9161023d6040519384610199565b82948184528183011161025a578281602093846000960137010152565b600080fd5b60005b8381106102725750506000910152565b8181015183820152602001610262565b3461025a5760007ffffffffffffffffffffffffffffffffffffffffffffffffffffffffffffffffc36011261025a576060604080516102c08161015c565b60008152600060208201520152604060a06102d96104b0565b7fffffffffffffffffffffffffffffffffffffffffffffffffffffffffffffffe0601f845194859360208552805160208601526020810151828601520151606080850152610336815180928160808801526020888801910161025f565b01168101030190f35b3461025a5760007ffffffffffffffffffffffffffffffffffffffffffffffffffffffffffffffffc36011261025a57602073ffffffffffffffffffffffffffffffffffffffff60005460101c16604051908152f35b3461025a5760007ffffffffffffffffffffffffffffffffffffffffffffffffffffffffffffffffc36011261025a57602060ff600454166040519015158152f35b7ffffffffffffffffffffffffffffffffffffffffffffffffffffffffffffffffc9060208282011261025a576004359167ffffffffffffffff831161025a578260809203011261025a5760040190565b3461025a5761043b610436366103d5565b610be4565b005b3461025a576020610455610450366103d5565b611a16565b604051908152f35b90600182811c921680156104a6575b602083101461047757565b7f4e487b7100000000000000000000000000000000000000000000000000000000600052602260045260246000fd5b91607f169161046c565b604051906104bd8261015c565b816001908154815260025460209081830152604051928391600091600354906104e58261045d565b808652918181169081156105775750600114610512575b5050506040929161050e910384610199565b0152565b909493925060036000527fc2575a0e9e593c00f959f8c92f12db2869c3395a3b0502d05e2516446f71f85b946000915b81831061055f5750939450919250908201018161050e60406104fc565b86548884018501529586019587945091830191610542565b7fffffffffffffffffffffffffffffffffffffffffffffffffffffffffffffff0016848701525050151560051b83010190508161050e60406104fc565b60005460ff8160081c16158091819261074f575b811561072f575b50156106ab578061060660017fffffffffffffffffffffffffffffffffffffffffffffffffffffffffffffff006000541617600055565b610675575b61061361075d565b61061957565b6106467fffffffffffffffffffffffffffffffffffffffffffffffffffffffffffff00ff60005416600055565b604051600181527f7f26b83ff96e1f2b6a682f133852f6798a09c465da95921460cefb384740249890602090a1565b6106a66101007fffffffffffffffffffffffffffffffffffffffffffffffffffffffffffff00ff6000541617600055565b61060b565b60846040517f08c379a000000000000000000000000000000000000000000000000000000000815260206004820152602e60248201527f496e697469616c697a61626c653a20636f6e747261637420697320616c72656160448201527f647920696e697469616c697a65640000000000000000000000000000000000006064820152fd5b303b15915081610741575b50386105cf565b6001915060ff16143861073a565b600160ff82161091506105c8565b6001807fffffffffffffffffffffffffffffffffffffffffffffffffffffffffffffff006004541617600455608051815560a05160025560c0519081519167ffffffffffffffff8311610178576107be836107b960035461045d565b6108fd565b60209081601f8511600114610837575060009184918261080c575b50507fffffffffffffffffffffffffffffffffffffffffffffffffffffffffffffffff91921b9260031b1c191617600355565b015191507fffffffffffffffffffffffffffffffffffffffffffffffffffffffffffffffff386107d9565b9190847fffffffffffffffffffffffffffffffffffffffffffffffffffffffffffffffe08195961661088b60036000527fc2575a0e9e593c00f959f8c92f12db2869c3395a3b0502d05e2516446f71f85b90565b946000905b888383106108e357505050106108ac575b505050811b01600355565b01517fffffffffffffffffffffffffffffffffffffffffffffffffffffffffffffffff60f88460031b161c191690553880806108a1565b858701518855909601959485019487935090810190610890565b601f8111610909575050565b600090600382527fc2575a0e9e593c00f959f8c92f12db2869c3395a3b0502d05e2516446f71f85b906020601f850160051c83019410610964575b601f0160051c01915b82811061095957505050565b81815560010161094d565b9092508290610944565b8051600190815560406020928381015160025501519182519267ffffffffffffffff8411610178576109a5846107b960035461045d565b81601f85116001146109ef575060009184918261080c5750507fffffffffffffffffffffffffffffffffffffffffffffffffffffffffffffffff91921b9260031b1c191617600355565b9190847fffffffffffffffffffffffffffffffffffffffffffffffffffffffffffffffe081959616610a4360036000527fc2575a0e9e593c00f959f8c92f12db2869c3395a3b0502d05e2516446f71f85b90565b946000905b88838310610a6357505050106108ac57505050811b01600355565b858701518855909601959485019487935090810190610a48565b15610a8457565b60846040517f08c379a000000000000000000000000000000000000000000000000000000000815260206004820152602660248201527f4163636f756e743a205369676e617475726520766572696669636174696f6e2060448201527f6661696c656400000000000000000000000000000000000000000000000000006064820152fd5b15610b0f57565b60846040517f08c379a000000000000000000000000000000000000000000000000000000000815260206004820152602260248201527f4163636f756e743a204e6f6e636520766572696669636174696f6e206661696c60448201527f65640000000000000000000000000000000000000000000000000000000000006064820152fd5b9035907fffffffffffffffffffffffffffffffffffffffffffffffffffffffffffffffe18136030182121561025a570180359067ffffffffffffffff821161025a5760200191813603831361025a57565b610bf6610bf08261142f565b15610a7d565b610c08610c02826117d8565b15610b08565b80358015610c7e5760018114610c645760028114610c4a57600314610c2a5750565b610c45610c3e8260206101e7940190610b93565b3691610223565b610e39565b50610c5f610c3e8260206101e7940190610b93565b610cbc565b50610c79610c3e8260206101e7940190610b93565b6112c6565b50610c93610c3e8260206101e7940190610b93565b610fa1565b604051906020820182811067ffffffffffffffff8211176101785760405260008252565b600160ff60045416151503610d70576014610d43910151610cfb610cde6101da565b6000815260006020820152610cf1610c98565b604082015261096e565b7fffffffffffffffffffff0000000000000000000000000000000000000000ffff75ffffffffffffffffffffffffffffffffffffffff00006000549260101b16911617600055565b6101e77fffffffffffffffffffffffffffffffffffffffffffffffffffffffffffffff0060045416600455565b60846040517f08c379a000000000000000000000000000000000000000000000000000000000815260206004820152602660248201527f4163636f756e743a20416c72656164792061646472657373206f776e6572206560448201527f6e61626c656400000000000000000000000000000000000000000000000000006064820152fd5b81601f8201121561025a578051610e0a816101e9565b92610e186040519485610199565b8184526020828401011161025a57610e36916020808501910161025f565b90565b60ff60045416610eff57805181019060608183031261025a5760208101519060408101519060608101519067ffffffffffffffff821161025a576020610e879281610ecf9701920101610df4565b90610e906101da565b92835260208301526040820152610eca7fffffffffffffffffffff0000000000000000000000000000000000000000ffff60005416600055565b61096e565b6101e760017fffffffffffffffffffffffffffffffffffffffffffffffffffffffffffffff006004541617600455565b60846040517f08c379a000000000000000000000000000000000000000000000000000000000815260206004820152602660248201527f4163636f756e743a20416c726561647920706173736b6579206f776e6572206560448201527f6e61626c656400000000000000000000000000000000000000000000000000006064820152fd5b73ffffffffffffffffffffffffffffffffffffffff81160361025a57565b8051810160608282031261025a57602082015190610fbe82610f83565b604083015190606084015167ffffffffffffffff811161025a576101e7946020611002928173ffffffffffffffffffffffffffffffffffffffff9501920101610df4565b921661140f565b67ffffffffffffffff81116101785760051b60200190565b81601f8201121561025a5780519161103883611009565b926110466040519485610199565b808452602092838086019260051b82010192831161025a578301905b828210611070575050505090565b81518152908301908301611062565b9080601f8301121561025a5781519061109782611009565b926110a56040519485610199565b828452602092838086019160051b8301019280841161025a57848301915b8483106110d35750505050505090565b825167ffffffffffffffff811161025a5786916110f584848094890101610df4565b8152019201916110c3565b909160608284031261025a5781519167ffffffffffffffff9283811161025a5781019380601f8601121561025a57845161113981611009565b906111476040519283610199565b808252602096878084019260051b8201019184831161025a5788809201905b83821061119f57505050509482015184811161025a5781611188918401611021565b93604083015190811161025a57610e36920161107f565b82809183516111ad81610f83565b815201910190611166565b156111bf57565b60646040517f08c379a000000000000000000000000000000000000000000000000000000000815260206004820152601360248201527f77726f6e67206172726179206c656e67746873000000000000000000000000006044820152fd5b7f4e487b7100000000000000000000000000000000000000000000000000000000600052601160045260246000fd5b7fffffffffffffffffffffffffffffffffffffffffffffffffffffffffffffffff81146112795760010190565b61121d565b7f4e487b7100000000000000000000000000000000000000000000000000000000600052603260045260246000fd5b80518210156112c15760209160051b010190565b61127e565b6112d99060208082518301019101611100565b9291906112f382518551809114908161139f575b506111b8565b8051611355575060005b815181101561134f578061134561133461131a61134a94866112ad565b5173ffffffffffffffffffffffffffffffffffffffff1690565b61133e83886112ad565b51906113be565b61124c565b6112fd565b50509050565b929060005b8151811015611398578061134561137761131a61139394866112ad565b61138183896112ad565b5161138c84886112ad565b519161140f565b61135a565b5050509050565b83518015925082156113b4575b5050386112ed565b14905038806113ac565b600091829182602083519301915af13d15611407573d906113de826101e9565b916113ec6040519384610199565b82523d6000602084013e5b156113ff5750565b602081519101fd5b6060906113f7565b916000928392602083519301915af13d15611407573d906113de826101e9565b61143881611a16565b60045460ff161561147c5761146a9061145b610c3e84606061146e960190610b93565b906114646104b0565b91611920565b1590565b61147757600090565b600190565b61151d6115046114ca73ffffffffffffffffffffffffffffffffffffffff937f19457468657265756d205369676e6564204d6573736167653a0a333200000000600052601c52603c60002090565b6114fe610c3e6114f360005473ffffffffffffffffffffffffffffffffffffffff9060101c1690565b966060810190610b93565b90611529565b73ffffffffffffffffffffffffffffffffffffffff1690565b91160361147757600090565b610e369161153691611700565b919091611577565b6005111561154857565b7f4e487b7100000000000000000000000000000000000000000000000000000000600052602160045260246000fd5b6115808161153e565b806115885750565b6115918161153e565b600181036115f8576040517f08c379a000000000000000000000000000000000000000000000000000000000815260206004820152601860248201527f45434453413a20696e76616c6964207369676e617475726500000000000000006044820152606490fd5b6116018161153e565b60028103611668576040517f08c379a000000000000000000000000000000000000000000000000000000000815260206004820152601f60248201527f45434453413a20696e76616c6964207369676e6174757265206c656e677468006044820152606490fd5b8061167460039261153e565b1461167b57565b6040517f08c379a000000000000000000000000000000000000000000000000000000000815260206004820152602260248201527f45434453413a20696e76616c6964207369676e6174757265202773272076616c60448201527f75650000000000000000000000000000000000000000000000000000000000006064820152608490fd5b90604181511460001461172e5761172a916020820151906060604084015193015160001a90611744565b9091565b5050600090600290565b6040513d6000823e3d90fd5b9291907f7fffffffffffffffffffffffffffffff5d576e7357a4501ddfe92f46681b20a083116117cc5791608094939160ff602094604051948552168484015260408301526060820152600093849182805260015afa156117c757815173ffffffffffffffffffffffffffffffffffffffff8116156117c1579190565b50600190565b611738565b50505050600090600390565b6040600554910135146117ea57600190565b600090565b90604051916020830152602082526040820182811067ffffffffffffffff82111761017857604052565b9061182c6020928281519485920161025f565b0190565b6101e79193929360405194859183516118518160209687808801910161025f565b83016118658251809387808501910161025f565b016118788251809386808501910161025f565b01038085520183610199565b60406101e791939293815194816118a587935180926020808701910161025f565b8201906020820152036020810185520183610199565b156118c257565b60646040517f08c379a000000000000000000000000000000000000000000000000000000000815260206004820152600d60248201527f4b6579206e6f7420666f756e64000000000000000000000000000000000000006044820152fd5b90815182019060209260c08185850194031261025a5760408101519160608201519360808301519267ffffffffffffffff9384811161025a57828861196792840101610df4565b9360a082015181811161025a57838961198292850101610df4565b9360c083015191821161025a5788946119b86119b36119ad600097896119be976119ca990101610df4565b936117ef565b611b54565b90611830565b60405191828092611819565b039060025afa156117c75760006119e76119be8693835190611884565b039060025afa156117c757610e3693611a0c60005194820151151580611a11576118bb565b611c06565b6118bb565b611a236020820182610b93565b9081604051918237206040805192602084019281358452828501520135606083015260608252608082019082821067ffffffffffffffff8311176101785781604052825190209160a081019283523060c082015260e04691015260608152611a8a8161017d565b51902090565b60405190611a9d8261015c565b604082527f6768696a6b6c6d6e6f707172737475767778797a303132333435363738392d5f6040837f4142434445464748494a4b4c4d4e4f505152535455565758595a61626364656660208201520152565b908160031b918083046008149015171561127957565b90611b0f826101e9565b611b1c6040519182610199565b8281527fffffffffffffffffffffffffffffffffffffffffffffffffffffffffffffffe0611b4a82946101e9565b0190602036910137565b805115611bfd57611b63611a90565b611b89611b7a611b738451611aef565b6006900490565b835160069006611bef57611b05565b91602083019181805101925b838310611ba3575050505090565b6004906003809401938451600190603f9082828260121c16880101518553828282600c1c16880101518386015382828260061c1688010151600286015316850101519082015301611b95565b611bf89061124c565b611b05565b50610e36610c98565b92919080158015611e21575b8015611df7575b8015611dcd575b611dc457610e3693611db9611c33611f9e565b91611c3c6101da565b600081526000602082015260006040820152835260208151910151611c5f6101da565b918252602082015260016040820152611c7e602084019180835261202d565b90611daa611c9460408601938085528351611fe3565b9260608601938452611d9a611d8a611caa6101da565b7f6b17d1f2e12c4247f8bce6e563a440f277037d812deb33a0f4a13945d898c29681527f4fe342e2fe1a7f9b8ee7eb4a7c0f9e162bce33576b315ececbb6406837bf51f5602082015260016040820152611d0d60808a0191808352875190611fe3565b60a08a0152611d1f8151855190611fe3565b60c08a0152611d318151885190611fe3565b60e08a0152611d40815161202d565b90611d556101008b0192808452885190611fe3565b6101208b0152611d688251865190611fe3565b6101408b0152611d7b8251895190611fe3565b6101608b015251905190611fe3565b6101808801948186525190611fe3565b6101a08701528251905190611fe3565b6101c085015251905190611fe3565b6101e0820152611e29565b50505050600090565b507fffffffff00000000ffffffffffffffffbce6faada7179e84f3b9cac2fc632551821015611c20565b507fffffffff00000000ffffffffffffffffbce6faada7179e84f3b9cac2fc632551811015611c19565b508115611c12565b939290917fffffffff00000000ffffffffffffffffbce6faada7179e84f3b9cac2fc63255190818410801590611f39575b611f2f57611e6882916122f7565b809309918309600080918193608091825b611e9157505050611e8c9394955061204d565b501490565b85611f0d575b888160fe1c600c8460fc1c161780611ec4575b5050611ebd90600292831b921b92611f54565b9182611e79565b611f009397611ebd976040611ef7611edf85879b989b611f43565b5151946020611eee8289611f43565b51015196611f43565b51015194612124565b9590945090928838611eaa565b9294611f1e9194611f249396612241565b91612241565b949193909392611e97565b5060009450505050565b5081811015611e5a565b9060108110156112c15760051b0190565b8015611279577fffffffffffffffffffffffffffffffffffffffffffffffffffffffffffffffff0190565b60405190611f8c8261015c565b60006040838281528260208201520152565b6040519061020080830183811067ffffffffffffffff821117610178576040528260005b828110611fce57505050565b602090611fd9611f7f565b8184015201611fc2565b61201091611fef611f7f565b50815191604060208201519101518251916040602085015194015194612124565b906040519261201e8461015c565b83526020830152604082015290565b61201090612039611f7f565b508051906040602082015191015191612241565b9291908115612118578160007fffffffff00000001000000000000000000000000ffffffffffffffffffffffff848180961161210e575b505060405191602083526020808401526020604084015260608301527fffffffff00000001000000000000000000000000fffffffffffffffffffffffd60808301528360a083015260208260c08160057ffffffffffffffffffffffffffffffffffffffffffffffffffffffffffffffffffa1561012a575082905181808280098097099509900990565b0691508338612084565b50509050600090600090565b93959391908161213657505050929190565b90929194958615612237577fffffffff00000001000000000000000000000000ffffffffffffffffffffffff9586858196958280838199099b818d999781868180808f9d888009809d099c8d99099c81878d0990099c099009930895818110612230575b03958280808960020980099281808481878d0993818110612229575b036002099481868009980996828089600209830890818110612222575b039b8c93600209099481811061221b575b03900997828910612212575b859182910892800995828710612209575b960394030990565b95840195612201565b978501976121f0565b83016121e4565b83016121d3565b82016121b6565b830161219a565b5094505091929190565b9290917fffffffff00000001000000000000000000000000ffffffffffffffffffffffff809181858009958280808080808c87096004099a800960080992818080808089800980097fffffffff00000001000000000000000000000000fffffffffffffffffffffffc09928009600309088189600209828280098181106122f0575b038981809b106122e9575b0390098181106122e2575b03940960020990565b83016122d9565b83016122ce565b83016122c3565b7fffffffff00000000ffffffffffffffffbce6faada7179e84f3b9cac2fc632551808211612398575b60405191602083526020808401526020604084015260608301527fffffffff00000000ffffffffffffffffbce6faada7179e84f3b9cac2fc63254f608083015260a082015260208160c08160057ffffffffffffffffffffffffffffffffffffffffffffffffffffffffffffffffffa1561025a575190565b8091069061232056fea164736f6c6343000813000a",
          "opcodes": "PUSH1 0x80 DUP1 PUSH1 0x40 MSTORE CALLVALUE PUSH2 0xC1 JUMPI PUSH1 0x0 SLOAD SWAP1 PUSH1 0xFF DUP3 PUSH1 0x8 SHR AND PUSH2 0x6F JUMPI POP PUSH1 0xFF DUP1 DUP3 AND SUB PUSH2 0x34 JUMPI JUMPDEST PUSH1 0x40 MLOAD PUSH2 0x23AE SWAP1 DUP2 PUSH2 0xC7 DUP3 CODECOPY RETURN JUMPDEST PUSH1 0xFF SWAP1 DUP2 NOT AND OR PUSH1 0x0 SSTORE PUSH32 0x7F26B83FF96E1F2B6A682F133852F6798A09C465DA95921460CEFB3847402498 PUSH1 0x20 PUSH1 0x40 MLOAD PUSH1 0xFF DUP2 MSTORE LOG1 CODESIZE PUSH2 0x25 JUMP JUMPDEST PUSH3 0x461BCD PUSH1 0xE5 SHL DUP2 MSTORE PUSH1 0x20 PUSH1 0x4 DUP3 ADD MSTORE PUSH1 0x27 PUSH1 0x24 DUP3 ADD MSTORE PUSH32 0x496E697469616C697A61626C653A20636F6E747261637420697320696E697469 PUSH1 0x44 DUP3 ADD MSTORE PUSH7 0x616C697A696E67 PUSH1 0xC8 SHL PUSH1 0x64 DUP3 ADD MSTORE PUSH1 0x84 SWAP1 REVERT JUMPDEST PUSH1 0x0 DUP1 REVERT INVALID PUSH1 0x80 PUSH1 0x40 MSTORE PUSH1 0x4 CALLDATASIZE LT ISZERO PUSH2 0x12 JUMPI PUSH1 0x0 DUP1 REVERT JUMPDEST PUSH1 0x0 DUP1 CALLDATALOAD PUSH1 0xE0 SHR SWAP1 DUP2 PUSH4 0x759A68C0 EQ PUSH2 0x7A JUMPI POP DUP1 PUSH4 0x8FB41072 EQ PUSH2 0x75 JUMPI DUP1 PUSH4 0xB627E20F EQ PUSH2 0x70 JUMPI DUP1 PUSH4 0xBE9EF843 EQ PUSH2 0x6B JUMPI DUP1 PUSH4 0xF0F05CEF EQ PUSH2 0x66 JUMPI PUSH4 0xFD5C8D72 EQ PUSH2 0x61 JUMPI PUSH1 0x0 DUP1 REVERT JUMPDEST PUSH2 0x43D JUMP JUMPDEST PUSH2 0x425 JUMP JUMPDEST PUSH2 0x394 JUMP JUMPDEST PUSH2 0x33F JUMP JUMPDEST PUSH2 0x282 JUMP JUMPDEST CALLVALUE PUSH2 0x12A JUMPI PUSH32 0xFFFFFFFFFFFFFFFFFFFFFFFFFFFFFFFFFFFFFFFFFFFFFFFFFFFFFFFFFFFFFFFC PUSH1 0x20 DUP2 CALLDATASIZE ADD SLT PUSH2 0x11E JUMPI PUSH1 0x4 CALLDATALOAD PUSH8 0xFFFFFFFFFFFFFFFF SWAP2 DUP3 DUP3 GT PUSH2 0x126 JUMPI PUSH1 0x60 SWAP1 DUP3 CALLDATASIZE SUB ADD SLT PUSH2 0x122 JUMPI PUSH2 0xD4 PUSH1 0xE0 PUSH1 0x40 MSTORE JUMP JUMPDEST DUP1 PUSH1 0x4 ADD CALLDATALOAD PUSH1 0x80 MSTORE PUSH1 0x24 DUP2 ADD CALLDATALOAD PUSH1 0xA0 MSTORE PUSH1 0x44 DUP2 ADD CALLDATALOAD SWAP2 DUP3 GT PUSH2 0x122 JUMPI ADD CALLDATASIZE PUSH1 0x23 DUP3 ADD SLT ISZERO PUSH2 0x11E JUMPI PUSH2 0x110 SWAP1 CALLDATASIZE SWAP1 PUSH1 0x24 PUSH1 0x4 DUP3 ADD CALLDATALOAD SWAP2 ADD PUSH2 0x223 JUMP JUMPDEST PUSH1 0xC0 MSTORE PUSH2 0x11B PUSH2 0x5B4 JUMP JUMPDEST DUP1 RETURN JUMPDEST POP DUP1 REVERT JUMPDEST DUP3 DUP1 REVERT JUMPDEST DUP4 DUP1 REVERT JUMPDEST DUP1 REVERT JUMPDEST PUSH32 0x4E487B7100000000000000000000000000000000000000000000000000000000 PUSH1 0x0 MSTORE PUSH1 0x41 PUSH1 0x4 MSTORE PUSH1 0x24 PUSH1 0x0 REVERT JUMPDEST PUSH1 0x60 DUP2 ADD SWAP1 DUP2 LT PUSH8 0xFFFFFFFFFFFFFFFF DUP3 GT OR PUSH2 0x178 JUMPI PUSH1 0x40 MSTORE JUMP JUMPDEST PUSH2 0x12D JUMP JUMPDEST PUSH1 0x80 DUP2 ADD SWAP1 DUP2 LT PUSH8 0xFFFFFFFFFFFFFFFF DUP3 GT OR PUSH2 0x178 JUMPI PUSH1 0x40 MSTORE JUMP JUMPDEST SWAP1 PUSH1 0x1F PUSH32 0xFFFFFFFFFFFFFFFFFFFFFFFFFFFFFFFFFFFFFFFFFFFFFFFFFFFFFFFFFFFFFFE0 SWAP2 ADD AND DUP2 ADD SWAP1 DUP2 LT PUSH8 0xFFFFFFFFFFFFFFFF DUP3 GT OR PUSH2 0x178 JUMPI PUSH1 0x40 MSTORE JUMP JUMPDEST PUSH1 0x40 MLOAD SWAP1 PUSH2 0x1E7 DUP3 PUSH2 0x15C JUMP JUMPDEST JUMP JUMPDEST PUSH8 0xFFFFFFFFFFFFFFFF DUP2 GT PUSH2 0x178 JUMPI PUSH1 0x1F ADD PUSH32 0xFFFFFFFFFFFFFFFFFFFFFFFFFFFFFFFFFFFFFFFFFFFFFFFFFFFFFFFFFFFFFFE0 AND PUSH1 0x20 ADD SWAP1 JUMP JUMPDEST SWAP3 SWAP2 SWAP3 PUSH2 0x22F DUP3 PUSH2 0x1E9 JUMP JUMPDEST SWAP2 PUSH2 0x23D PUSH1 0x40 MLOAD SWAP4 DUP5 PUSH2 0x199 JUMP JUMPDEST DUP3 SWAP5 DUP2 DUP5 MSTORE DUP2 DUP4 ADD GT PUSH2 0x25A JUMPI DUP3 DUP2 PUSH1 0x20 SWAP4 DUP5 PUSH1 0x0 SWAP7 ADD CALLDATACOPY ADD ADD MSTORE JUMP JUMPDEST PUSH1 0x0 DUP1 REVERT JUMPDEST PUSH1 0x0 JUMPDEST DUP4 DUP2 LT PUSH2 0x272 JUMPI POP POP PUSH1 0x0 SWAP2 ADD MSTORE JUMP JUMPDEST DUP2 DUP2 ADD MLOAD DUP4 DUP3 ADD MSTORE PUSH1 0x20 ADD PUSH2 0x262 JUMP JUMPDEST CALLVALUE PUSH2 0x25A JUMPI PUSH1 0x0 PUSH32 0xFFFFFFFFFFFFFFFFFFFFFFFFFFFFFFFFFFFFFFFFFFFFFFFFFFFFFFFFFFFFFFFC CALLDATASIZE ADD SLT PUSH2 0x25A JUMPI PUSH1 0x60 PUSH1 0x40 DUP1 MLOAD PUSH2 0x2C0 DUP2 PUSH2 0x15C JUMP JUMPDEST PUSH1 0x0 DUP2 MSTORE PUSH1 0x0 PUSH1 0x20 DUP3 ADD MSTORE ADD MSTORE PUSH1 0x40 PUSH1 0xA0 PUSH2 0x2D9 PUSH2 0x4B0 JUMP JUMPDEST PUSH32 0xFFFFFFFFFFFFFFFFFFFFFFFFFFFFFFFFFFFFFFFFFFFFFFFFFFFFFFFFFFFFFFE0 PUSH1 0x1F DUP5 MLOAD SWAP5 DUP6 SWAP4 PUSH1 0x20 DUP6 MSTORE DUP1 MLOAD PUSH1 0x20 DUP7 ADD MSTORE PUSH1 0x20 DUP2 ADD MLOAD DUP3 DUP7 ADD MSTORE ADD MLOAD PUSH1 0x60 DUP1 DUP6 ADD MSTORE PUSH2 0x336 DUP2 MLOAD DUP1 SWAP3 DUP2 PUSH1 0x80 DUP9 ADD MSTORE PUSH1 0x20 DUP9 DUP9 ADD SWAP2 ADD PUSH2 0x25F JUMP JUMPDEST ADD AND DUP2 ADD SUB ADD SWAP1 RETURN JUMPDEST CALLVALUE PUSH2 0x25A JUMPI PUSH1 0x0 PUSH32 0xFFFFFFFFFFFFFFFFFFFFFFFFFFFFFFFFFFFFFFFFFFFFFFFFFFFFFFFFFFFFFFFC CALLDATASIZE ADD SLT PUSH2 0x25A JUMPI PUSH1 0x20 PUSH20 0xFFFFFFFFFFFFFFFFFFFFFFFFFFFFFFFFFFFFFFFF PUSH1 0x0 SLOAD PUSH1 0x10 SHR AND PUSH1 0x40 MLOAD SWAP1 DUP2 MSTORE RETURN JUMPDEST CALLVALUE PUSH2 0x25A JUMPI PUSH1 0x0 PUSH32 0xFFFFFFFFFFFFFFFFFFFFFFFFFFFFFFFFFFFFFFFFFFFFFFFFFFFFFFFFFFFFFFFC CALLDATASIZE ADD SLT PUSH2 0x25A JUMPI PUSH1 0x20 PUSH1 0xFF PUSH1 0x4 SLOAD AND PUSH1 0x40 MLOAD SWAP1 ISZERO ISZERO DUP2 MSTORE RETURN JUMPDEST PUSH32 0xFFFFFFFFFFFFFFFFFFFFFFFFFFFFFFFFFFFFFFFFFFFFFFFFFFFFFFFFFFFFFFFC SWAP1 PUSH1 0x20 DUP3 DUP3 ADD SLT PUSH2 0x25A JUMPI PUSH1 0x4 CALLDATALOAD SWAP2 PUSH8 0xFFFFFFFFFFFFFFFF DUP4 GT PUSH2 0x25A JUMPI DUP3 PUSH1 0x80 SWAP3 SUB ADD SLT PUSH2 0x25A JUMPI PUSH1 0x4 ADD SWAP1 JUMP JUMPDEST CALLVALUE PUSH2 0x25A JUMPI PUSH2 0x43B PUSH2 0x436 CALLDATASIZE PUSH2 0x3D5 JUMP JUMPDEST PUSH2 0xBE4 JUMP JUMPDEST STOP JUMPDEST CALLVALUE PUSH2 0x25A JUMPI PUSH1 0x20 PUSH2 0x455 PUSH2 0x450 CALLDATASIZE PUSH2 0x3D5 JUMP JUMPDEST PUSH2 0x1A16 JUMP JUMPDEST PUSH1 0x40 MLOAD SWAP1 DUP2 MSTORE RETURN JUMPDEST SWAP1 PUSH1 0x1 DUP3 DUP2 SHR SWAP3 AND DUP1 ISZERO PUSH2 0x4A6 JUMPI JUMPDEST PUSH1 0x20 DUP4 LT EQ PUSH2 0x477 JUMPI JUMP JUMPDEST PUSH32 0x4E487B7100000000000000000000000000000000000000000000000000000000 PUSH1 0x0 MSTORE PUSH1 0x22 PUSH1 0x4 MSTORE PUSH1 0x24 PUSH1 0x0 REVERT JUMPDEST SWAP2 PUSH1 0x7F AND SWAP2 PUSH2 0x46C JUMP JUMPDEST PUSH1 0x40 MLOAD SWAP1 PUSH2 0x4BD DUP3 PUSH2 0x15C JUMP JUMPDEST DUP2 PUSH1 0x1 SWAP1 DUP2 SLOAD DUP2 MSTORE PUSH1 0x2 SLOAD PUSH1 0x20 SWAP1 DUP2 DUP4 ADD MSTORE PUSH1 0x40 MLOAD SWAP3 DUP4 SWAP2 PUSH1 0x0 SWAP2 PUSH1 0x3 SLOAD SWAP1 PUSH2 0x4E5 DUP3 PUSH2 0x45D JUMP JUMPDEST DUP1 DUP7 MSTORE SWAP2 DUP2 DUP2 AND SWAP1 DUP2 ISZERO PUSH2 0x577 JUMPI POP PUSH1 0x1 EQ PUSH2 0x512 JUMPI JUMPDEST POP POP POP PUSH1 0x40 SWAP3 SWAP2 PUSH2 0x50E SWAP2 SUB DUP5 PUSH2 0x199 JUMP JUMPDEST ADD MSTORE JUMP JUMPDEST SWAP1 SWAP5 SWAP4 SWAP3 POP PUSH1 0x3 PUSH1 0x0 MSTORE PUSH32 0xC2575A0E9E593C00F959F8C92F12DB2869C3395A3B0502D05E2516446F71F85B SWAP5 PUSH1 0x0 SWAP2 JUMPDEST DUP2 DUP4 LT PUSH2 0x55F JUMPI POP SWAP4 SWAP5 POP SWAP2 SWAP3 POP SWAP1 DUP3 ADD ADD DUP2 PUSH2 0x50E PUSH1 0x40 PUSH2 0x4FC JUMP JUMPDEST DUP7 SLOAD DUP9 DUP5 ADD DUP6 ADD MSTORE SWAP6 DUP7 ADD SWAP6 DUP8 SWAP5 POP SWAP2 DUP4 ADD SWAP2 PUSH2 0x542 JUMP JUMPDEST PUSH32 0xFFFFFFFFFFFFFFFFFFFFFFFFFFFFFFFFFFFFFFFFFFFFFFFFFFFFFFFFFFFFFF00 AND DUP5 DUP8 ADD MSTORE POP POP ISZERO ISZERO PUSH1 0x5 SHL DUP4 ADD ADD SWAP1 POP DUP2 PUSH2 0x50E PUSH1 0x40 PUSH2 0x4FC JUMP JUMPDEST PUSH1 0x0 SLOAD PUSH1 0xFF DUP2 PUSH1 0x8 SHR AND ISZERO DUP1 SWAP2 DUP2 SWAP3 PUSH2 0x74F JUMPI JUMPDEST DUP2 ISZERO PUSH2 0x72F JUMPI JUMPDEST POP ISZERO PUSH2 0x6AB JUMPI DUP1 PUSH2 0x606 PUSH1 0x1 PUSH32 0xFFFFFFFFFFFFFFFFFFFFFFFFFFFFFFFFFFFFFFFFFFFFFFFFFFFFFFFFFFFFFF00 PUSH1 0x0 SLOAD AND OR PUSH1 0x0 SSTORE JUMP JUMPDEST PUSH2 0x675 JUMPI JUMPDEST PUSH2 0x613 PUSH2 0x75D JUMP JUMPDEST PUSH2 0x619 JUMPI JUMP JUMPDEST PUSH2 0x646 PUSH32 0xFFFFFFFFFFFFFFFFFFFFFFFFFFFFFFFFFFFFFFFFFFFFFFFFFFFFFFFFFFFF00FF PUSH1 0x0 SLOAD AND PUSH1 0x0 SSTORE JUMP JUMPDEST PUSH1 0x40 MLOAD PUSH1 0x1 DUP2 MSTORE PUSH32 0x7F26B83FF96E1F2B6A682F133852F6798A09C465DA95921460CEFB3847402498 SWAP1 PUSH1 0x20 SWAP1 LOG1 JUMP JUMPDEST PUSH2 0x6A6 PUSH2 0x100 PUSH32 0xFFFFFFFFFFFFFFFFFFFFFFFFFFFFFFFFFFFFFFFFFFFFFFFFFFFFFFFFFFFF00FF PUSH1 0x0 SLOAD AND OR PUSH1 0x0 SSTORE JUMP JUMPDEST PUSH2 0x60B JUMP JUMPDEST PUSH1 0x84 PUSH1 0x40 MLOAD PUSH32 0x8C379A000000000000000000000000000000000000000000000000000000000 DUP2 MSTORE PUSH1 0x20 PUSH1 0x4 DUP3 ADD MSTORE PUSH1 0x2E PUSH1 0x24 DUP3 ADD MSTORE PUSH32 0x496E697469616C697A61626C653A20636F6E747261637420697320616C726561 PUSH1 0x44 DUP3 ADD MSTORE PUSH32 0x647920696E697469616C697A6564000000000000000000000000000000000000 PUSH1 0x64 DUP3 ADD MSTORE REVERT JUMPDEST ADDRESS EXTCODESIZE ISZERO SWAP2 POP DUP2 PUSH2 0x741 JUMPI JUMPDEST POP CODESIZE PUSH2 0x5CF JUMP JUMPDEST PUSH1 0x1 SWAP2 POP PUSH1 0xFF AND EQ CODESIZE PUSH2 0x73A JUMP JUMPDEST PUSH1 0x1 PUSH1 0xFF DUP3 AND LT SWAP2 POP PUSH2 0x5C8 JUMP JUMPDEST PUSH1 0x1 DUP1 PUSH32 0xFFFFFFFFFFFFFFFFFFFFFFFFFFFFFFFFFFFFFFFFFFFFFFFFFFFFFFFFFFFFFF00 PUSH1 0x4 SLOAD AND OR PUSH1 0x4 SSTORE PUSH1 0x80 MLOAD DUP2 SSTORE PUSH1 0xA0 MLOAD PUSH1 0x2 SSTORE PUSH1 0xC0 MLOAD SWAP1 DUP2 MLOAD SWAP2 PUSH8 0xFFFFFFFFFFFFFFFF DUP4 GT PUSH2 0x178 JUMPI PUSH2 0x7BE DUP4 PUSH2 0x7B9 PUSH1 0x3 SLOAD PUSH2 0x45D JUMP JUMPDEST PUSH2 0x8FD JUMP JUMPDEST PUSH1 0x20 SWAP1 DUP2 PUSH1 0x1F DUP6 GT PUSH1 0x1 EQ PUSH2 0x837 JUMPI POP PUSH1 0x0 SWAP2 DUP5 SWAP2 DUP3 PUSH2 0x80C JUMPI JUMPDEST POP POP PUSH32 0xFFFFFFFFFFFFFFFFFFFFFFFFFFFFFFFFFFFFFFFFFFFFFFFFFFFFFFFFFFFFFFFF SWAP2 SWAP3 SHL SWAP3 PUSH1 0x3 SHL SHR NOT AND OR PUSH1 0x3 SSTORE JUMP JUMPDEST ADD MLOAD SWAP2 POP PUSH32 0xFFFFFFFFFFFFFFFFFFFFFFFFFFFFFFFFFFFFFFFFFFFFFFFFFFFFFFFFFFFFFFFF CODESIZE PUSH2 0x7D9 JUMP JUMPDEST SWAP2 SWAP1 DUP5 PUSH32 0xFFFFFFFFFFFFFFFFFFFFFFFFFFFFFFFFFFFFFFFFFFFFFFFFFFFFFFFFFFFFFFE0 DUP2 SWAP6 SWAP7 AND PUSH2 0x88B PUSH1 0x3 PUSH1 0x0 MSTORE PUSH32 0xC2575A0E9E593C00F959F8C92F12DB2869C3395A3B0502D05E2516446F71F85B SWAP1 JUMP JUMPDEST SWAP5 PUSH1 0x0 SWAP1 JUMPDEST DUP9 DUP4 DUP4 LT PUSH2 0x8E3 JUMPI POP POP POP LT PUSH2 0x8AC JUMPI JUMPDEST POP POP POP DUP2 SHL ADD PUSH1 0x3 SSTORE JUMP JUMPDEST ADD MLOAD PUSH32 0xFFFFFFFFFFFFFFFFFFFFFFFFFFFFFFFFFFFFFFFFFFFFFFFFFFFFFFFFFFFFFFFF PUSH1 0xF8 DUP5 PUSH1 0x3 SHL AND SHR NOT AND SWAP1 SSTORE CODESIZE DUP1 DUP1 PUSH2 0x8A1 JUMP JUMPDEST DUP6 DUP8 ADD MLOAD DUP9 SSTORE SWAP1 SWAP7 ADD SWAP6 SWAP5 DUP6 ADD SWAP5 DUP8 SWAP4 POP SWAP1 DUP2 ADD SWAP1 PUSH2 0x890 JUMP JUMPDEST PUSH1 0x1F DUP2 GT PUSH2 0x909 JUMPI POP POP JUMP JUMPDEST PUSH1 0x0 SWAP1 PUSH1 0x3 DUP3 MSTORE PUSH32 0xC2575A0E9E593C00F959F8C92F12DB2869C3395A3B0502D05E2516446F71F85B SWAP1 PUSH1 0x20 PUSH1 0x1F DUP6 ADD PUSH1 0x5 SHR DUP4 ADD SWAP5 LT PUSH2 0x964 JUMPI JUMPDEST PUSH1 0x1F ADD PUSH1 0x5 SHR ADD SWAP2 JUMPDEST DUP3 DUP2 LT PUSH2 0x959 JUMPI POP POP POP JUMP JUMPDEST DUP2 DUP2 SSTORE PUSH1 0x1 ADD PUSH2 0x94D JUMP JUMPDEST SWAP1 SWAP3 POP DUP3 SWAP1 PUSH2 0x944 JUMP JUMPDEST DUP1 MLOAD PUSH1 0x1 SWAP1 DUP2 SSTORE PUSH1 0x40 PUSH1 0x20 SWAP3 DUP4 DUP2 ADD MLOAD PUSH1 0x2 SSTORE ADD MLOAD SWAP2 DUP3 MLOAD SWAP3 PUSH8 0xFFFFFFFFFFFFFFFF DUP5 GT PUSH2 0x178 JUMPI PUSH2 0x9A5 DUP5 PUSH2 0x7B9 PUSH1 0x3 SLOAD PUSH2 0x45D JUMP JUMPDEST DUP2 PUSH1 0x1F DUP6 GT PUSH1 0x1 EQ PUSH2 0x9EF JUMPI POP PUSH1 0x0 SWAP2 DUP5 SWAP2 DUP3 PUSH2 0x80C JUMPI POP POP PUSH32 0xFFFFFFFFFFFFFFFFFFFFFFFFFFFFFFFFFFFFFFFFFFFFFFFFFFFFFFFFFFFFFFFF SWAP2 SWAP3 SHL SWAP3 PUSH1 0x3 SHL SHR NOT AND OR PUSH1 0x3 SSTORE JUMP JUMPDEST SWAP2 SWAP1 DUP5 PUSH32 0xFFFFFFFFFFFFFFFFFFFFFFFFFFFFFFFFFFFFFFFFFFFFFFFFFFFFFFFFFFFFFFE0 DUP2 SWAP6 SWAP7 AND PUSH2 0xA43 PUSH1 0x3 PUSH1 0x0 MSTORE PUSH32 0xC2575A0E9E593C00F959F8C92F12DB2869C3395A3B0502D05E2516446F71F85B SWAP1 JUMP JUMPDEST SWAP5 PUSH1 0x0 SWAP1 JUMPDEST DUP9 DUP4 DUP4 LT PUSH2 0xA63 JUMPI POP POP POP LT PUSH2 0x8AC JUMPI POP POP POP DUP2 SHL ADD PUSH1 0x3 SSTORE JUMP JUMPDEST DUP6 DUP8 ADD MLOAD DUP9 SSTORE SWAP1 SWAP7 ADD SWAP6 SWAP5 DUP6 ADD SWAP5 DUP8 SWAP4 POP SWAP1 DUP2 ADD SWAP1 PUSH2 0xA48 JUMP JUMPDEST ISZERO PUSH2 0xA84 JUMPI JUMP JUMPDEST PUSH1 0x84 PUSH1 0x40 MLOAD PUSH32 0x8C379A000000000000000000000000000000000000000000000000000000000 DUP2 MSTORE PUSH1 0x20 PUSH1 0x4 DUP3 ADD MSTORE PUSH1 0x26 PUSH1 0x24 DUP3 ADD MSTORE PUSH32 0x4163636F756E743A205369676E617475726520766572696669636174696F6E20 PUSH1 0x44 DUP3 ADD MSTORE PUSH32 0x6661696C65640000000000000000000000000000000000000000000000000000 PUSH1 0x64 DUP3 ADD MSTORE REVERT JUMPDEST ISZERO PUSH2 0xB0F JUMPI JUMP JUMPDEST PUSH1 0x84 PUSH1 0x40 MLOAD PUSH32 0x8C379A000000000000000000000000000000000000000000000000000000000 DUP2 MSTORE PUSH1 0x20 PUSH1 0x4 DUP3 ADD MSTORE PUSH1 0x22 PUSH1 0x24 DUP3 ADD MSTORE PUSH32 0x4163636F756E743A204E6F6E636520766572696669636174696F6E206661696C PUSH1 0x44 DUP3 ADD MSTORE PUSH32 0x6564000000000000000000000000000000000000000000000000000000000000 PUSH1 0x64 DUP3 ADD MSTORE REVERT JUMPDEST SWAP1 CALLDATALOAD SWAP1 PUSH32 0xFFFFFFFFFFFFFFFFFFFFFFFFFFFFFFFFFFFFFFFFFFFFFFFFFFFFFFFFFFFFFFE1 DUP2 CALLDATASIZE SUB ADD DUP3 SLT ISZERO PUSH2 0x25A JUMPI ADD DUP1 CALLDATALOAD SWAP1 PUSH8 0xFFFFFFFFFFFFFFFF DUP3 GT PUSH2 0x25A JUMPI PUSH1 0x20 ADD SWAP2 DUP2 CALLDATASIZE SUB DUP4 SGT PUSH2 0x25A JUMPI JUMP JUMPDEST PUSH2 0xBF6 PUSH2 0xBF0 DUP3 PUSH2 0x142F JUMP JUMPDEST ISZERO PUSH2 0xA7D JUMP JUMPDEST PUSH2 0xC08 PUSH2 0xC02 DUP3 PUSH2 0x17D8 JUMP JUMPDEST ISZERO PUSH2 0xB08 JUMP JUMPDEST DUP1 CALLDATALOAD DUP1 ISZERO PUSH2 0xC7E JUMPI PUSH1 0x1 DUP2 EQ PUSH2 0xC64 JUMPI PUSH1 0x2 DUP2 EQ PUSH2 0xC4A JUMPI PUSH1 0x3 EQ PUSH2 0xC2A JUMPI POP JUMP JUMPDEST PUSH2 0xC45 PUSH2 0xC3E DUP3 PUSH1 0x20 PUSH2 0x1E7 SWAP5 ADD SWAP1 PUSH2 0xB93 JUMP JUMPDEST CALLDATASIZE SWAP2 PUSH2 0x223 JUMP JUMPDEST PUSH2 0xE39 JUMP JUMPDEST POP PUSH2 0xC5F PUSH2 0xC3E DUP3 PUSH1 0x20 PUSH2 0x1E7 SWAP5 ADD SWAP1 PUSH2 0xB93 JUMP JUMPDEST PUSH2 0xCBC JUMP JUMPDEST POP PUSH2 0xC79 PUSH2 0xC3E DUP3 PUSH1 0x20 PUSH2 0x1E7 SWAP5 ADD SWAP1 PUSH2 0xB93 JUMP JUMPDEST PUSH2 0x12C6 JUMP JUMPDEST POP PUSH2 0xC93 PUSH2 0xC3E DUP3 PUSH1 0x20 PUSH2 0x1E7 SWAP5 ADD SWAP1 PUSH2 0xB93 JUMP JUMPDEST PUSH2 0xFA1 JUMP JUMPDEST PUSH1 0x40 MLOAD SWAP1 PUSH1 0x20 DUP3 ADD DUP3 DUP2 LT PUSH8 0xFFFFFFFFFFFFFFFF DUP3 GT OR PUSH2 0x178 JUMPI PUSH1 0x40 MSTORE PUSH1 0x0 DUP3 MSTORE JUMP JUMPDEST PUSH1 0x1 PUSH1 0xFF PUSH1 0x4 SLOAD AND ISZERO ISZERO SUB PUSH2 0xD70 JUMPI PUSH1 0x14 PUSH2 0xD43 SWAP2 ADD MLOAD PUSH2 0xCFB PUSH2 0xCDE PUSH2 0x1DA JUMP JUMPDEST PUSH1 0x0 DUP2 MSTORE PUSH1 0x0 PUSH1 0x20 DUP3 ADD MSTORE PUSH2 0xCF1 PUSH2 0xC98 JUMP JUMPDEST PUSH1 0x40 DUP3 ADD MSTORE PUSH2 0x96E JUMP JUMPDEST PUSH32 0xFFFFFFFFFFFFFFFFFFFF0000000000000000000000000000000000000000FFFF PUSH22 0xFFFFFFFFFFFFFFFFFFFFFFFFFFFFFFFFFFFFFFFF0000 PUSH1 0x0 SLOAD SWAP3 PUSH1 0x10 SHL AND SWAP2 AND OR PUSH1 0x0 SSTORE JUMP JUMPDEST PUSH2 0x1E7 PUSH32 0xFFFFFFFFFFFFFFFFFFFFFFFFFFFFFFFFFFFFFFFFFFFFFFFFFFFFFFFFFFFFFF00 PUSH1 0x4 SLOAD AND PUSH1 0x4 SSTORE JUMP JUMPDEST PUSH1 0x84 PUSH1 0x40 MLOAD PUSH32 0x8C379A000000000000000000000000000000000000000000000000000000000 DUP2 MSTORE PUSH1 0x20 PUSH1 0x4 DUP3 ADD MSTORE PUSH1 0x26 PUSH1 0x24 DUP3 ADD MSTORE PUSH32 0x4163636F756E743A20416C72656164792061646472657373206F776E65722065 PUSH1 0x44 DUP3 ADD MSTORE PUSH32 0x6E61626C65640000000000000000000000000000000000000000000000000000 PUSH1 0x64 DUP3 ADD MSTORE REVERT JUMPDEST DUP2 PUSH1 0x1F DUP3 ADD SLT ISZERO PUSH2 0x25A JUMPI DUP1 MLOAD PUSH2 0xE0A DUP2 PUSH2 0x1E9 JUMP JUMPDEST SWAP3 PUSH2 0xE18 PUSH1 0x40 MLOAD SWAP5 DUP6 PUSH2 0x199 JUMP JUMPDEST DUP2 DUP5 MSTORE PUSH1 0x20 DUP3 DUP5 ADD ADD GT PUSH2 0x25A JUMPI PUSH2 0xE36 SWAP2 PUSH1 0x20 DUP1 DUP6 ADD SWAP2 ADD PUSH2 0x25F JUMP JUMPDEST SWAP1 JUMP JUMPDEST PUSH1 0xFF PUSH1 0x4 SLOAD AND PUSH2 0xEFF JUMPI DUP1 MLOAD DUP2 ADD SWAP1 PUSH1 0x60 DUP2 DUP4 SUB SLT PUSH2 0x25A JUMPI PUSH1 0x20 DUP2 ADD MLOAD SWAP1 PUSH1 0x40 DUP2 ADD MLOAD SWAP1 PUSH1 0x60 DUP2 ADD MLOAD SWAP1 PUSH8 0xFFFFFFFFFFFFFFFF DUP3 GT PUSH2 0x25A JUMPI PUSH1 0x20 PUSH2 0xE87 SWAP3 DUP2 PUSH2 0xECF SWAP8 ADD SWAP3 ADD ADD PUSH2 0xDF4 JUMP JUMPDEST SWAP1 PUSH2 0xE90 PUSH2 0x1DA JUMP JUMPDEST SWAP3 DUP4 MSTORE PUSH1 0x20 DUP4 ADD MSTORE PUSH1 0x40 DUP3 ADD MSTORE PUSH2 0xECA PUSH32 0xFFFFFFFFFFFFFFFFFFFF0000000000000000000000000000000000000000FFFF PUSH1 0x0 SLOAD AND PUSH1 0x0 SSTORE JUMP JUMPDEST PUSH2 0x96E JUMP JUMPDEST PUSH2 0x1E7 PUSH1 0x1 PUSH32 0xFFFFFFFFFFFFFFFFFFFFFFFFFFFFFFFFFFFFFFFFFFFFFFFFFFFFFFFFFFFFFF00 PUSH1 0x4 SLOAD AND OR PUSH1 0x4 SSTORE JUMP JUMPDEST PUSH1 0x84 PUSH1 0x40 MLOAD PUSH32 0x8C379A000000000000000000000000000000000000000000000000000000000 DUP2 MSTORE PUSH1 0x20 PUSH1 0x4 DUP3 ADD MSTORE PUSH1 0x26 PUSH1 0x24 DUP3 ADD MSTORE PUSH32 0x4163636F756E743A20416C726561647920706173736B6579206F776E65722065 PUSH1 0x44 DUP3 ADD MSTORE PUSH32 0x6E61626C65640000000000000000000000000000000000000000000000000000 PUSH1 0x64 DUP3 ADD MSTORE REVERT JUMPDEST PUSH20 0xFFFFFFFFFFFFFFFFFFFFFFFFFFFFFFFFFFFFFFFF DUP2 AND SUB PUSH2 0x25A JUMPI JUMP JUMPDEST DUP1 MLOAD DUP2 ADD PUSH1 0x60 DUP3 DUP3 SUB SLT PUSH2 0x25A JUMPI PUSH1 0x20 DUP3 ADD MLOAD SWAP1 PUSH2 0xFBE DUP3 PUSH2 0xF83 JUMP JUMPDEST PUSH1 0x40 DUP4 ADD MLOAD SWAP1 PUSH1 0x60 DUP5 ADD MLOAD PUSH8 0xFFFFFFFFFFFFFFFF DUP2 GT PUSH2 0x25A JUMPI PUSH2 0x1E7 SWAP5 PUSH1 0x20 PUSH2 0x1002 SWAP3 DUP2 PUSH20 0xFFFFFFFFFFFFFFFFFFFFFFFFFFFFFFFFFFFFFFFF SWAP6 ADD SWAP3 ADD ADD PUSH2 0xDF4 JUMP JUMPDEST SWAP3 AND PUSH2 0x140F JUMP JUMPDEST PUSH8 0xFFFFFFFFFFFFFFFF DUP2 GT PUSH2 0x178 JUMPI PUSH1 0x5 SHL PUSH1 0x20 ADD SWAP1 JUMP JUMPDEST DUP2 PUSH1 0x1F DUP3 ADD SLT ISZERO PUSH2 0x25A JUMPI DUP1 MLOAD SWAP2 PUSH2 0x1038 DUP4 PUSH2 0x1009 JUMP JUMPDEST SWAP3 PUSH2 0x1046 PUSH1 0x40 MLOAD SWAP5 DUP6 PUSH2 0x199 JUMP JUMPDEST DUP1 DUP5 MSTORE PUSH1 0x20 SWAP3 DUP4 DUP1 DUP7 ADD SWAP3 PUSH1 0x5 SHL DUP3 ADD ADD SWAP3 DUP4 GT PUSH2 0x25A JUMPI DUP4 ADD SWAP1 JUMPDEST DUP3 DUP3 LT PUSH2 0x1070 JUMPI POP POP POP POP SWAP1 JUMP JUMPDEST DUP2 MLOAD DUP2 MSTORE SWAP1 DUP4 ADD SWAP1 DUP4 ADD PUSH2 0x1062 JUMP JUMPDEST SWAP1 DUP1 PUSH1 0x1F DUP4 ADD SLT ISZERO PUSH2 0x25A JUMPI DUP2 MLOAD SWAP1 PUSH2 0x1097 DUP3 PUSH2 0x1009 JUMP JUMPDEST SWAP3 PUSH2 0x10A5 PUSH1 0x40 MLOAD SWAP5 DUP6 PUSH2 0x199 JUMP JUMPDEST DUP3 DUP5 MSTORE PUSH1 0x20 SWAP3 DUP4 DUP1 DUP7 ADD SWAP2 PUSH1 0x5 SHL DUP4 ADD ADD SWAP3 DUP1 DUP5 GT PUSH2 0x25A JUMPI DUP5 DUP4 ADD SWAP2 JUMPDEST DUP5 DUP4 LT PUSH2 0x10D3 JUMPI POP POP POP POP POP POP SWAP1 JUMP JUMPDEST DUP3 MLOAD PUSH8 0xFFFFFFFFFFFFFFFF DUP2 GT PUSH2 0x25A JUMPI DUP7 SWAP2 PUSH2 0x10F5 DUP5 DUP5 DUP1 SWAP5 DUP10 ADD ADD PUSH2 0xDF4 JUMP JUMPDEST DUP2 MSTORE ADD SWAP3 ADD SWAP2 PUSH2 0x10C3 JUMP JUMPDEST SWAP1 SWAP2 PUSH1 0x60 DUP3 DUP5 SUB SLT PUSH2 0x25A JUMPI DUP2 MLOAD SWAP2 PUSH8 0xFFFFFFFFFFFFFFFF SWAP3 DUP4 DUP2 GT PUSH2 0x25A JUMPI DUP2 ADD SWAP4 DUP1 PUSH1 0x1F DUP7 ADD SLT ISZERO PUSH2 0x25A JUMPI DUP5 MLOAD PUSH2 0x1139 DUP2 PUSH2 0x1009 JUMP JUMPDEST SWAP1 PUSH2 0x1147 PUSH1 0x40 MLOAD SWAP3 DUP4 PUSH2 0x199 JUMP JUMPDEST DUP1 DUP3 MSTORE PUSH1 0x20 SWAP7 DUP8 DUP1 DUP5 ADD SWAP3 PUSH1 0x5 SHL DUP3 ADD ADD SWAP2 DUP5 DUP4 GT PUSH2 0x25A JUMPI DUP9 DUP1 SWAP3 ADD SWAP1 JUMPDEST DUP4 DUP3 LT PUSH2 0x119F JUMPI POP POP POP POP SWAP5 DUP3 ADD MLOAD DUP5 DUP2 GT PUSH2 0x25A JUMPI DUP2 PUSH2 0x1188 SWAP2 DUP5 ADD PUSH2 0x1021 JUMP JUMPDEST SWAP4 PUSH1 0x40 DUP4 ADD MLOAD SWAP1 DUP2 GT PUSH2 0x25A JUMPI PUSH2 0xE36 SWAP3 ADD PUSH2 0x107F JUMP JUMPDEST DUP3 DUP1 SWAP2 DUP4 MLOAD PUSH2 0x11AD DUP2 PUSH2 0xF83 JUMP JUMPDEST DUP2 MSTORE ADD SWAP2 ADD SWAP1 PUSH2 0x1166 JUMP JUMPDEST ISZERO PUSH2 0x11BF JUMPI JUMP JUMPDEST PUSH1 0x64 PUSH1 0x40 MLOAD PUSH32 0x8C379A000000000000000000000000000000000000000000000000000000000 DUP2 MSTORE PUSH1 0x20 PUSH1 0x4 DUP3 ADD MSTORE PUSH1 0x13 PUSH1 0x24 DUP3 ADD MSTORE PUSH32 0x77726F6E67206172726179206C656E6774687300000000000000000000000000 PUSH1 0x44 DUP3 ADD MSTORE REVERT JUMPDEST PUSH32 0x4E487B7100000000000000000000000000000000000000000000000000000000 PUSH1 0x0 MSTORE PUSH1 0x11 PUSH1 0x4 MSTORE PUSH1 0x24 PUSH1 0x0 REVERT JUMPDEST PUSH32 0xFFFFFFFFFFFFFFFFFFFFFFFFFFFFFFFFFFFFFFFFFFFFFFFFFFFFFFFFFFFFFFFF DUP2 EQ PUSH2 0x1279 JUMPI PUSH1 0x1 ADD SWAP1 JUMP JUMPDEST PUSH2 0x121D JUMP JUMPDEST PUSH32 0x4E487B7100000000000000000000000000000000000000000000000000000000 PUSH1 0x0 MSTORE PUSH1 0x32 PUSH1 0x4 MSTORE PUSH1 0x24 PUSH1 0x0 REVERT JUMPDEST DUP1 MLOAD DUP3 LT ISZERO PUSH2 0x12C1 JUMPI PUSH1 0x20 SWAP2 PUSH1 0x5 SHL ADD ADD SWAP1 JUMP JUMPDEST PUSH2 0x127E JUMP JUMPDEST PUSH2 0x12D9 SWAP1 PUSH1 0x20 DUP1 DUP3 MLOAD DUP4 ADD ADD SWAP2 ADD PUSH2 0x1100 JUMP JUMPDEST SWAP3 SWAP2 SWAP1 PUSH2 0x12F3 DUP3 MLOAD DUP6 MLOAD DUP1 SWAP2 EQ SWAP1 DUP2 PUSH2 0x139F JUMPI JUMPDEST POP PUSH2 0x11B8 JUMP JUMPDEST DUP1 MLOAD PUSH2 0x1355 JUMPI POP PUSH1 0x0 JUMPDEST DUP2 MLOAD DUP2 LT ISZERO PUSH2 0x134F JUMPI DUP1 PUSH2 0x1345 PUSH2 0x1334 PUSH2 0x131A PUSH2 0x134A SWAP5 DUP7 PUSH2 0x12AD JUMP JUMPDEST MLOAD PUSH20 0xFFFFFFFFFFFFFFFFFFFFFFFFFFFFFFFFFFFFFFFF AND SWAP1 JUMP JUMPDEST PUSH2 0x133E DUP4 DUP9 PUSH2 0x12AD JUMP JUMPDEST MLOAD SWAP1 PUSH2 0x13BE JUMP JUMPDEST PUSH2 0x124C JUMP JUMPDEST PUSH2 0x12FD JUMP JUMPDEST POP POP SWAP1 POP JUMP JUMPDEST SWAP3 SWAP1 PUSH1 0x0 JUMPDEST DUP2 MLOAD DUP2 LT ISZERO PUSH2 0x1398 JUMPI DUP1 PUSH2 0x1345 PUSH2 0x1377 PUSH2 0x131A PUSH2 0x1393 SWAP5 DUP7 PUSH2 0x12AD JUMP JUMPDEST PUSH2 0x1381 DUP4 DUP10 PUSH2 0x12AD JUMP JUMPDEST MLOAD PUSH2 0x138C DUP5 DUP9 PUSH2 0x12AD JUMP JUMPDEST MLOAD SWAP2 PUSH2 0x140F JUMP JUMPDEST PUSH2 0x135A JUMP JUMPDEST POP POP POP SWAP1 POP JUMP JUMPDEST DUP4 MLOAD DUP1 ISZERO SWAP3 POP DUP3 ISZERO PUSH2 0x13B4 JUMPI JUMPDEST POP POP CODESIZE PUSH2 0x12ED JUMP JUMPDEST EQ SWAP1 POP CODESIZE DUP1 PUSH2 0x13AC JUMP JUMPDEST PUSH1 0x0 SWAP2 DUP3 SWAP2 DUP3 PUSH1 0x20 DUP4 MLOAD SWAP4 ADD SWAP2 GAS CALL RETURNDATASIZE ISZERO PUSH2 0x1407 JUMPI RETURNDATASIZE SWAP1 PUSH2 0x13DE DUP3 PUSH2 0x1E9 JUMP JUMPDEST SWAP2 PUSH2 0x13EC PUSH1 0x40 MLOAD SWAP4 DUP5 PUSH2 0x199 JUMP JUMPDEST DUP3 MSTORE RETURNDATASIZE PUSH1 0x0 PUSH1 0x20 DUP5 ADD RETURNDATACOPY JUMPDEST ISZERO PUSH2 0x13FF JUMPI POP JUMP JUMPDEST PUSH1 0x20 DUP2 MLOAD SWAP2 ADD REVERT JUMPDEST PUSH1 0x60 SWAP1 PUSH2 0x13F7 JUMP JUMPDEST SWAP2 PUSH1 0x0 SWAP3 DUP4 SWAP3 PUSH1 0x20 DUP4 MLOAD SWAP4 ADD SWAP2 GAS CALL RETURNDATASIZE ISZERO PUSH2 0x1407 JUMPI RETURNDATASIZE SWAP1 PUSH2 0x13DE DUP3 PUSH2 0x1E9 JUMP JUMPDEST PUSH2 0x1438 DUP2 PUSH2 0x1A16 JUMP JUMPDEST PUSH1 0x4 SLOAD PUSH1 0xFF AND ISZERO PUSH2 0x147C JUMPI PUSH2 0x146A SWAP1 PUSH2 0x145B PUSH2 0xC3E DUP5 PUSH1 0x60 PUSH2 0x146E SWAP7 ADD SWAP1 PUSH2 0xB93 JUMP JUMPDEST SWAP1 PUSH2 0x1464 PUSH2 0x4B0 JUMP JUMPDEST SWAP2 PUSH2 0x1920 JUMP JUMPDEST ISZERO SWAP1 JUMP JUMPDEST PUSH2 0x1477 JUMPI PUSH1 0x0 SWAP1 JUMP JUMPDEST PUSH1 0x1 SWAP1 JUMP JUMPDEST PUSH2 0x151D PUSH2 0x1504 PUSH2 0x14CA PUSH20 0xFFFFFFFFFFFFFFFFFFFFFFFFFFFFFFFFFFFFFFFF SWAP4 PUSH32 0x19457468657265756D205369676E6564204D6573736167653A0A333200000000 PUSH1 0x0 MSTORE PUSH1 0x1C MSTORE PUSH1 0x3C PUSH1 0x0 KECCAK256 SWAP1 JUMP JUMPDEST PUSH2 0x14FE PUSH2 0xC3E PUSH2 0x14F3 PUSH1 0x0 SLOAD PUSH20 0xFFFFFFFFFFFFFFFFFFFFFFFFFFFFFFFFFFFFFFFF SWAP1 PUSH1 0x10 SHR AND SWAP1 JUMP JUMPDEST SWAP7 PUSH1 0x60 DUP2 ADD SWAP1 PUSH2 0xB93 JUMP JUMPDEST SWAP1 PUSH2 0x1529 JUMP JUMPDEST PUSH20 0xFFFFFFFFFFFFFFFFFFFFFFFFFFFFFFFFFFFFFFFF AND SWAP1 JUMP JUMPDEST SWAP2 AND SUB PUSH2 0x1477 JUMPI PUSH1 0x0 SWAP1 JUMP JUMPDEST PUSH2 0xE36 SWAP2 PUSH2 0x1536 SWAP2 PUSH2 0x1700 JUMP JUMPDEST SWAP2 SWAP1 SWAP2 PUSH2 0x1577 JUMP JUMPDEST PUSH1 0x5 GT ISZERO PUSH2 0x1548 JUMPI JUMP JUMPDEST PUSH32 0x4E487B7100000000000000000000000000000000000000000000000000000000 PUSH1 0x0 MSTORE PUSH1 0x21 PUSH1 0x4 MSTORE PUSH1 0x24 PUSH1 0x0 REVERT JUMPDEST PUSH2 0x1580 DUP2 PUSH2 0x153E JUMP JUMPDEST DUP1 PUSH2 0x1588 JUMPI POP JUMP JUMPDEST PUSH2 0x1591 DUP2 PUSH2 0x153E JUMP JUMPDEST PUSH1 0x1 DUP2 SUB PUSH2 0x15F8 JUMPI PUSH1 0x40 MLOAD PUSH32 0x8C379A000000000000000000000000000000000000000000000000000000000 DUP2 MSTORE PUSH1 0x20 PUSH1 0x4 DUP3 ADD MSTORE PUSH1 0x18 PUSH1 0x24 DUP3 ADD MSTORE PUSH32 0x45434453413A20696E76616C6964207369676E61747572650000000000000000 PUSH1 0x44 DUP3 ADD MSTORE PUSH1 0x64 SWAP1 REVERT JUMPDEST PUSH2 0x1601 DUP2 PUSH2 0x153E JUMP JUMPDEST PUSH1 0x2 DUP2 SUB PUSH2 0x1668 JUMPI PUSH1 0x40 MLOAD PUSH32 0x8C379A000000000000000000000000000000000000000000000000000000000 DUP2 MSTORE PUSH1 0x20 PUSH1 0x4 DUP3 ADD MSTORE PUSH1 0x1F PUSH1 0x24 DUP3 ADD MSTORE PUSH32 0x45434453413A20696E76616C6964207369676E6174757265206C656E67746800 PUSH1 0x44 DUP3 ADD MSTORE PUSH1 0x64 SWAP1 REVERT JUMPDEST DUP1 PUSH2 0x1674 PUSH1 0x3 SWAP3 PUSH2 0x153E JUMP JUMPDEST EQ PUSH2 0x167B JUMPI JUMP JUMPDEST PUSH1 0x40 MLOAD PUSH32 0x8C379A000000000000000000000000000000000000000000000000000000000 DUP2 MSTORE PUSH1 0x20 PUSH1 0x4 DUP3 ADD MSTORE PUSH1 0x22 PUSH1 0x24 DUP3 ADD MSTORE PUSH32 0x45434453413A20696E76616C6964207369676E6174757265202773272076616C PUSH1 0x44 DUP3 ADD MSTORE PUSH32 0x7565000000000000000000000000000000000000000000000000000000000000 PUSH1 0x64 DUP3 ADD MSTORE PUSH1 0x84 SWAP1 REVERT JUMPDEST SWAP1 PUSH1 0x41 DUP2 MLOAD EQ PUSH1 0x0 EQ PUSH2 0x172E JUMPI PUSH2 0x172A SWAP2 PUSH1 0x20 DUP3 ADD MLOAD SWAP1 PUSH1 0x60 PUSH1 0x40 DUP5 ADD MLOAD SWAP4 ADD MLOAD PUSH1 0x0 BYTE SWAP1 PUSH2 0x1744 JUMP JUMPDEST SWAP1 SWAP2 JUMP JUMPDEST POP POP PUSH1 0x0 SWAP1 PUSH1 0x2 SWAP1 JUMP JUMPDEST PUSH1 0x40 MLOAD RETURNDATASIZE PUSH1 0x0 DUP3 RETURNDATACOPY RETURNDATASIZE SWAP1 REVERT JUMPDEST SWAP3 SWAP2 SWAP1 PUSH32 0x7FFFFFFFFFFFFFFFFFFFFFFFFFFFFFFF5D576E7357A4501DDFE92F46681B20A0 DUP4 GT PUSH2 0x17CC JUMPI SWAP2 PUSH1 0x80 SWAP5 SWAP4 SWAP2 PUSH1 0xFF PUSH1 0x20 SWAP5 PUSH1 0x40 MLOAD SWAP5 DUP6 MSTORE AND DUP5 DUP5 ADD MSTORE PUSH1 0x40 DUP4 ADD MSTORE PUSH1 0x60 DUP3 ADD MSTORE PUSH1 0x0 SWAP4 DUP5 SWAP2 DUP3 DUP1 MSTORE PUSH1 0x1 GAS STATICCALL ISZERO PUSH2 0x17C7 JUMPI DUP2 MLOAD PUSH20 0xFFFFFFFFFFFFFFFFFFFFFFFFFFFFFFFFFFFFFFFF DUP2 AND ISZERO PUSH2 0x17C1 JUMPI SWAP2 SWAP1 JUMP JUMPDEST POP PUSH1 0x1 SWAP1 JUMP JUMPDEST PUSH2 0x1738 JUMP JUMPDEST POP POP POP POP PUSH1 0x0 SWAP1 PUSH1 0x3 SWAP1 JUMP JUMPDEST PUSH1 0x40 PUSH1 0x5 SLOAD SWAP2 ADD CALLDATALOAD EQ PUSH2 0x17EA JUMPI PUSH1 0x1 SWAP1 JUMP JUMPDEST PUSH1 0x0 SWAP1 JUMP JUMPDEST SWAP1 PUSH1 0x40 MLOAD SWAP2 PUSH1 0x20 DUP4 ADD MSTORE PUSH1 0x20 DUP3 MSTORE PUSH1 0x40 DUP3 ADD DUP3 DUP2 LT PUSH8 0xFFFFFFFFFFFFFFFF DUP3 GT OR PUSH2 0x178 JUMPI PUSH1 0x40 MSTORE JUMP JUMPDEST SWAP1 PUSH2 0x182C PUSH1 0x20 SWAP3 DUP3 DUP2 MLOAD SWAP5 DUP6 SWAP3 ADD PUSH2 0x25F JUMP JUMPDEST ADD SWAP1 JUMP JUMPDEST PUSH2 0x1E7 SWAP2 SWAP4 SWAP3 SWAP4 PUSH1 0x40 MLOAD SWAP5 DUP6 SWAP2 DUP4 MLOAD PUSH2 0x1851 DUP2 PUSH1 0x20 SWAP7 DUP8 DUP1 DUP9 ADD SWAP2 ADD PUSH2 0x25F JUMP JUMPDEST DUP4 ADD PUSH2 0x1865 DUP3 MLOAD DUP1 SWAP4 DUP8 DUP1 DUP6 ADD SWAP2 ADD PUSH2 0x25F JUMP JUMPDEST ADD PUSH2 0x1878 DUP3 MLOAD DUP1 SWAP4 DUP7 DUP1 DUP6 ADD SWAP2 ADD PUSH2 0x25F JUMP JUMPDEST ADD SUB DUP1 DUP6 MSTORE ADD DUP4 PUSH2 0x199 JUMP JUMPDEST PUSH1 0x40 PUSH2 0x1E7 SWAP2 SWAP4 SWAP3 SWAP4 DUP2 MLOAD SWAP5 DUP2 PUSH2 0x18A5 DUP8 SWAP4 MLOAD DUP1 SWAP3 PUSH1 0x20 DUP1 DUP8 ADD SWAP2 ADD PUSH2 0x25F JUMP JUMPDEST DUP3 ADD SWAP1 PUSH1 0x20 DUP3 ADD MSTORE SUB PUSH1 0x20 DUP2 ADD DUP6 MSTORE ADD DUP4 PUSH2 0x199 JUMP JUMPDEST ISZERO PUSH2 0x18C2 JUMPI JUMP JUMPDEST PUSH1 0x64 PUSH1 0x40 MLOAD PUSH32 0x8C379A000000000000000000000000000000000000000000000000000000000 DUP2 MSTORE PUSH1 0x20 PUSH1 0x4 DUP3 ADD MSTORE PUSH1 0xD PUSH1 0x24 DUP3 ADD MSTORE PUSH32 0x4B6579206E6F7420666F756E6400000000000000000000000000000000000000 PUSH1 0x44 DUP3 ADD MSTORE REVERT JUMPDEST SWAP1 DUP2 MLOAD DUP3 ADD SWAP1 PUSH1 0x20 SWAP3 PUSH1 0xC0 DUP2 DUP6 DUP6 ADD SWAP5 SUB SLT PUSH2 0x25A JUMPI PUSH1 0x40 DUP2 ADD MLOAD SWAP2 PUSH1 0x60 DUP3 ADD MLOAD SWAP4 PUSH1 0x80 DUP4 ADD MLOAD SWAP3 PUSH8 0xFFFFFFFFFFFFFFFF SWAP4 DUP5 DUP2 GT PUSH2 0x25A JUMPI DUP3 DUP9 PUSH2 0x1967 SWAP3 DUP5 ADD ADD PUSH2 0xDF4 JUMP JUMPDEST SWAP4 PUSH1 0xA0 DUP3 ADD MLOAD DUP2 DUP2 GT PUSH2 0x25A JUMPI DUP4 DUP10 PUSH2 0x1982 SWAP3 DUP6 ADD ADD PUSH2 0xDF4 JUMP JUMPDEST SWAP4 PUSH1 0xC0 DUP4 ADD MLOAD SWAP2 DUP3 GT PUSH2 0x25A JUMPI DUP9 SWAP5 PUSH2 0x19B8 PUSH2 0x19B3 PUSH2 0x19AD PUSH1 0x0 SWAP8 DUP10 PUSH2 0x19BE SWAP8 PUSH2 0x19CA SWAP10 ADD ADD PUSH2 0xDF4 JUMP JUMPDEST SWAP4 PUSH2 0x17EF JUMP JUMPDEST PUSH2 0x1B54 JUMP JUMPDEST SWAP1 PUSH2 0x1830 JUMP JUMPDEST PUSH1 0x40 MLOAD SWAP2 DUP3 DUP1 SWAP3 PUSH2 0x1819 JUMP JUMPDEST SUB SWAP1 PUSH1 0x2 GAS STATICCALL ISZERO PUSH2 0x17C7 JUMPI PUSH1 0x0 PUSH2 0x19E7 PUSH2 0x19BE DUP7 SWAP4 DUP4 MLOAD SWAP1 PUSH2 0x1884 JUMP JUMPDEST SUB SWAP1 PUSH1 0x2 GAS STATICCALL ISZERO PUSH2 0x17C7 JUMPI PUSH2 0xE36 SWAP4 PUSH2 0x1A0C PUSH1 0x0 MLOAD SWAP5 DUP3 ADD MLOAD ISZERO ISZERO DUP1 PUSH2 0x1A11 JUMPI PUSH2 0x18BB JUMP JUMPDEST PUSH2 0x1C06 JUMP JUMPDEST PUSH2 0x18BB JUMP JUMPDEST PUSH2 0x1A23 PUSH1 0x20 DUP3 ADD DUP3 PUSH2 0xB93 JUMP JUMPDEST SWAP1 DUP2 PUSH1 0x40 MLOAD SWAP2 DUP3 CALLDATACOPY KECCAK256 PUSH1 0x40 DUP1 MLOAD SWAP3 PUSH1 0x20 DUP5 ADD SWAP3 DUP2 CALLDATALOAD DUP5 MSTORE DUP3 DUP6 ADD MSTORE ADD CALLDATALOAD PUSH1 0x60 DUP4 ADD MSTORE PUSH1 0x60 DUP3 MSTORE PUSH1 0x80 DUP3 ADD SWAP1 DUP3 DUP3 LT PUSH8 0xFFFFFFFFFFFFFFFF DUP4 GT OR PUSH2 0x178 JUMPI DUP2 PUSH1 0x40 MSTORE DUP3 MLOAD SWAP1 KECCAK256 SWAP2 PUSH1 0xA0 DUP2 ADD SWAP3 DUP4 MSTORE ADDRESS PUSH1 0xC0 DUP3 ADD MSTORE PUSH1 0xE0 CHAINID SWAP2 ADD MSTORE PUSH1 0x60 DUP2 MSTORE PUSH2 0x1A8A DUP2 PUSH2 0x17D JUMP JUMPDEST MLOAD SWAP1 KECCAK256 SWAP1 JUMP JUMPDEST PUSH1 0x40 MLOAD SWAP1 PUSH2 0x1A9D DUP3 PUSH2 0x15C JUMP JUMPDEST PUSH1 0x40 DUP3 MSTORE PUSH32 0x6768696A6B6C6D6E6F707172737475767778797A303132333435363738392D5F PUSH1 0x40 DUP4 PUSH32 0x4142434445464748494A4B4C4D4E4F505152535455565758595A616263646566 PUSH1 0x20 DUP3 ADD MSTORE ADD MSTORE JUMP JUMPDEST SWAP1 DUP2 PUSH1 0x3 SHL SWAP2 DUP1 DUP4 DIV PUSH1 0x8 EQ SWAP1 ISZERO OR ISZERO PUSH2 0x1279 JUMPI JUMP JUMPDEST SWAP1 PUSH2 0x1B0F DUP3 PUSH2 0x1E9 JUMP JUMPDEST PUSH2 0x1B1C PUSH1 0x40 MLOAD SWAP2 DUP3 PUSH2 0x199 JUMP JUMPDEST DUP3 DUP2 MSTORE PUSH32 0xFFFFFFFFFFFFFFFFFFFFFFFFFFFFFFFFFFFFFFFFFFFFFFFFFFFFFFFFFFFFFFE0 PUSH2 0x1B4A DUP3 SWAP5 PUSH2 0x1E9 JUMP JUMPDEST ADD SWAP1 PUSH1 0x20 CALLDATASIZE SWAP2 ADD CALLDATACOPY JUMP JUMPDEST DUP1 MLOAD ISZERO PUSH2 0x1BFD JUMPI PUSH2 0x1B63 PUSH2 0x1A90 JUMP JUMPDEST PUSH2 0x1B89 PUSH2 0x1B7A PUSH2 0x1B73 DUP5 MLOAD PUSH2 0x1AEF JUMP JUMPDEST PUSH1 0x6 SWAP1 DIV SWAP1 JUMP JUMPDEST DUP4 MLOAD PUSH1 0x6 SWAP1 MOD PUSH2 0x1BEF JUMPI PUSH2 0x1B05 JUMP JUMPDEST SWAP2 PUSH1 0x20 DUP4 ADD SWAP2 DUP2 DUP1 MLOAD ADD SWAP3 JUMPDEST DUP4 DUP4 LT PUSH2 0x1BA3 JUMPI POP POP POP POP SWAP1 JUMP JUMPDEST PUSH1 0x4 SWAP1 PUSH1 0x3 DUP1 SWAP5 ADD SWAP4 DUP5 MLOAD PUSH1 0x1 SWAP1 PUSH1 0x3F SWAP1 DUP3 DUP3 DUP3 PUSH1 0x12 SHR AND DUP9 ADD ADD MLOAD DUP6 MSTORE8 DUP3 DUP3 DUP3 PUSH1 0xC SHR AND DUP9 ADD ADD MLOAD DUP4 DUP7 ADD MSTORE8 DUP3 DUP3 DUP3 PUSH1 0x6 SHR AND DUP9 ADD ADD MLOAD PUSH1 0x2 DUP7 ADD MSTORE8 AND DUP6 ADD ADD MLOAD SWAP1 DUP3 ADD MSTORE8 ADD PUSH2 0x1B95 JUMP JUMPDEST PUSH2 0x1BF8 SWAP1 PUSH2 0x124C JUMP JUMPDEST PUSH2 0x1B05 JUMP JUMPDEST POP PUSH2 0xE36 PUSH2 0xC98 JUMP JUMPDEST SWAP3 SWAP2 SWAP1 DUP1 ISZERO DUP1 ISZERO PUSH2 0x1E21 JUMPI JUMPDEST DUP1 ISZERO PUSH2 0x1DF7 JUMPI JUMPDEST DUP1 ISZERO PUSH2 0x1DCD JUMPI JUMPDEST PUSH2 0x1DC4 JUMPI PUSH2 0xE36 SWAP4 PUSH2 0x1DB9 PUSH2 0x1C33 PUSH2 0x1F9E JUMP JUMPDEST SWAP2 PUSH2 0x1C3C PUSH2 0x1DA JUMP JUMPDEST PUSH1 0x0 DUP2 MSTORE PUSH1 0x0 PUSH1 0x20 DUP3 ADD MSTORE PUSH1 0x0 PUSH1 0x40 DUP3 ADD MSTORE DUP4 MSTORE PUSH1 0x20 DUP2 MLOAD SWAP2 ADD MLOAD PUSH2 0x1C5F PUSH2 0x1DA JUMP JUMPDEST SWAP2 DUP3 MSTORE PUSH1 0x20 DUP3 ADD MSTORE PUSH1 0x1 PUSH1 0x40 DUP3 ADD MSTORE PUSH2 0x1C7E PUSH1 0x20 DUP5 ADD SWAP2 DUP1 DUP4 MSTORE PUSH2 0x202D JUMP JUMPDEST SWAP1 PUSH2 0x1DAA PUSH2 0x1C94 PUSH1 0x40 DUP7 ADD SWAP4 DUP1 DUP6 MSTORE DUP4 MLOAD PUSH2 0x1FE3 JUMP JUMPDEST SWAP3 PUSH1 0x60 DUP7 ADD SWAP4 DUP5 MSTORE PUSH2 0x1D9A PUSH2 0x1D8A PUSH2 0x1CAA PUSH2 0x1DA JUMP JUMPDEST PUSH32 0x6B17D1F2E12C4247F8BCE6E563A440F277037D812DEB33A0F4A13945D898C296 DUP2 MSTORE PUSH32 0x4FE342E2FE1A7F9B8EE7EB4A7C0F9E162BCE33576B315ECECBB6406837BF51F5 PUSH1 0x20 DUP3 ADD MSTORE PUSH1 0x1 PUSH1 0x40 DUP3 ADD MSTORE PUSH2 0x1D0D PUSH1 0x80 DUP11 ADD SWAP2 DUP1 DUP4 MSTORE DUP8 MLOAD SWAP1 PUSH2 0x1FE3 JUMP JUMPDEST PUSH1 0xA0 DUP11 ADD MSTORE PUSH2 0x1D1F DUP2 MLOAD DUP6 MLOAD SWAP1 PUSH2 0x1FE3 JUMP JUMPDEST PUSH1 0xC0 DUP11 ADD MSTORE PUSH2 0x1D31 DUP2 MLOAD DUP9 MLOAD SWAP1 PUSH2 0x1FE3 JUMP JUMPDEST PUSH1 0xE0 DUP11 ADD MSTORE PUSH2 0x1D40 DUP2 MLOAD PUSH2 0x202D JUMP JUMPDEST SWAP1 PUSH2 0x1D55 PUSH2 0x100 DUP12 ADD SWAP3 DUP1 DUP5 MSTORE DUP9 MLOAD SWAP1 PUSH2 0x1FE3 JUMP JUMPDEST PUSH2 0x120 DUP12 ADD MSTORE PUSH2 0x1D68 DUP3 MLOAD DUP7 MLOAD SWAP1 PUSH2 0x1FE3 JUMP JUMPDEST PUSH2 0x140 DUP12 ADD MSTORE PUSH2 0x1D7B DUP3 MLOAD DUP10 MLOAD SWAP1 PUSH2 0x1FE3 JUMP JUMPDEST PUSH2 0x160 DUP12 ADD MSTORE MLOAD SWAP1 MLOAD SWAP1 PUSH2 0x1FE3 JUMP JUMPDEST PUSH2 0x180 DUP9 ADD SWAP5 DUP2 DUP7 MSTORE MLOAD SWAP1 PUSH2 0x1FE3 JUMP JUMPDEST PUSH2 0x1A0 DUP8 ADD MSTORE DUP3 MLOAD SWAP1 MLOAD SWAP1 PUSH2 0x1FE3 JUMP JUMPDEST PUSH2 0x1C0 DUP6 ADD MSTORE MLOAD SWAP1 MLOAD SWAP1 PUSH2 0x1FE3 JUMP JUMPDEST PUSH2 0x1E0 DUP3 ADD MSTORE PUSH2 0x1E29 JUMP JUMPDEST POP POP POP POP PUSH1 0x0 SWAP1 JUMP JUMPDEST POP PUSH32 0xFFFFFFFF00000000FFFFFFFFFFFFFFFFBCE6FAADA7179E84F3B9CAC2FC632551 DUP3 LT ISZERO PUSH2 0x1C20 JUMP JUMPDEST POP PUSH32 0xFFFFFFFF00000000FFFFFFFFFFFFFFFFBCE6FAADA7179E84F3B9CAC2FC632551 DUP2 LT ISZERO PUSH2 0x1C19 JUMP JUMPDEST POP DUP2 ISZERO PUSH2 0x1C12 JUMP JUMPDEST SWAP4 SWAP3 SWAP1 SWAP2 PUSH32 0xFFFFFFFF00000000FFFFFFFFFFFFFFFFBCE6FAADA7179E84F3B9CAC2FC632551 SWAP1 DUP2 DUP5 LT DUP1 ISZERO SWAP1 PUSH2 0x1F39 JUMPI JUMPDEST PUSH2 0x1F2F JUMPI PUSH2 0x1E68 DUP3 SWAP2 PUSH2 0x22F7 JUMP JUMPDEST DUP1 SWAP4 MULMOD SWAP2 DUP4 MULMOD PUSH1 0x0 DUP1 SWAP2 DUP2 SWAP4 PUSH1 0x80 SWAP2 DUP3 JUMPDEST PUSH2 0x1E91 JUMPI POP POP POP PUSH2 0x1E8C SWAP4 SWAP5 SWAP6 POP PUSH2 0x204D JUMP JUMPDEST POP EQ SWAP1 JUMP JUMPDEST DUP6 PUSH2 0x1F0D JUMPI JUMPDEST DUP9 DUP2 PUSH1 0xFE SHR PUSH1 0xC DUP5 PUSH1 0xFC SHR AND OR DUP1 PUSH2 0x1EC4 JUMPI JUMPDEST POP POP PUSH2 0x1EBD SWAP1 PUSH1 0x2 SWAP3 DUP4 SHL SWAP3 SHL SWAP3 PUSH2 0x1F54 JUMP JUMPDEST SWAP2 DUP3 PUSH2 0x1E79 JUMP JUMPDEST PUSH2 0x1F00 SWAP4 SWAP8 PUSH2 0x1EBD SWAP8 PUSH1 0x40 PUSH2 0x1EF7 PUSH2 0x1EDF DUP6 DUP8 SWAP12 SWAP9 SWAP12 PUSH2 0x1F43 JUMP JUMPDEST MLOAD MLOAD SWAP5 PUSH1 0x20 PUSH2 0x1EEE DUP3 DUP10 PUSH2 0x1F43 JUMP JUMPDEST MLOAD ADD MLOAD SWAP7 PUSH2 0x1F43 JUMP JUMPDEST MLOAD ADD MLOAD SWAP5 PUSH2 0x2124 JUMP JUMPDEST SWAP6 SWAP1 SWAP5 POP SWAP1 SWAP3 DUP9 CODESIZE PUSH2 0x1EAA JUMP JUMPDEST SWAP3 SWAP5 PUSH2 0x1F1E SWAP2 SWAP5 PUSH2 0x1F24 SWAP4 SWAP7 PUSH2 0x2241 JUMP JUMPDEST SWAP2 PUSH2 0x2241 JUMP JUMPDEST SWAP5 SWAP2 SWAP4 SWAP1 SWAP4 SWAP3 PUSH2 0x1E97 JUMP JUMPDEST POP PUSH1 0x0 SWAP5 POP POP POP POP JUMP JUMPDEST POP DUP2 DUP2 LT ISZERO PUSH2 0x1E5A JUMP JUMPDEST SWAP1 PUSH1 0x10 DUP2 LT ISZERO PUSH2 0x12C1 JUMPI PUSH1 0x5 SHL ADD SWAP1 JUMP JUMPDEST DUP1 ISZERO PUSH2 0x1279 JUMPI PUSH32 0xFFFFFFFFFFFFFFFFFFFFFFFFFFFFFFFFFFFFFFFFFFFFFFFFFFFFFFFFFFFFFFFF ADD SWAP1 JUMP JUMPDEST PUSH1 0x40 MLOAD SWAP1 PUSH2 0x1F8C DUP3 PUSH2 0x15C JUMP JUMPDEST PUSH1 0x0 PUSH1 0x40 DUP4 DUP3 DUP2 MSTORE DUP3 PUSH1 0x20 DUP3 ADD MSTORE ADD MSTORE JUMP JUMPDEST PUSH1 0x40 MLOAD SWAP1 PUSH2 0x200 DUP1 DUP4 ADD DUP4 DUP2 LT PUSH8 0xFFFFFFFFFFFFFFFF DUP3 GT OR PUSH2 0x178 JUMPI PUSH1 0x40 MSTORE DUP3 PUSH1 0x0 JUMPDEST DUP3 DUP2 LT PUSH2 0x1FCE JUMPI POP POP POP JUMP JUMPDEST PUSH1 0x20 SWAP1 PUSH2 0x1FD9 PUSH2 0x1F7F JUMP JUMPDEST DUP2 DUP5 ADD MSTORE ADD PUSH2 0x1FC2 JUMP JUMPDEST PUSH2 0x2010 SWAP2 PUSH2 0x1FEF PUSH2 0x1F7F JUMP JUMPDEST POP DUP2 MLOAD SWAP2 PUSH1 0x40 PUSH1 0x20 DUP3 ADD MLOAD SWAP2 ADD MLOAD DUP3 MLOAD SWAP2 PUSH1 0x40 PUSH1 0x20 DUP6 ADD MLOAD SWAP5 ADD MLOAD SWAP5 PUSH2 0x2124 JUMP JUMPDEST SWAP1 PUSH1 0x40 MLOAD SWAP3 PUSH2 0x201E DUP5 PUSH2 0x15C JUMP JUMPDEST DUP4 MSTORE PUSH1 0x20 DUP4 ADD MSTORE PUSH1 0x40 DUP3 ADD MSTORE SWAP1 JUMP JUMPDEST PUSH2 0x2010 SWAP1 PUSH2 0x2039 PUSH2 0x1F7F JUMP JUMPDEST POP DUP1 MLOAD SWAP1 PUSH1 0x40 PUSH1 0x20 DUP3 ADD MLOAD SWAP2 ADD MLOAD SWAP2 PUSH2 0x2241 JUMP JUMPDEST SWAP3 SWAP2 SWAP1 DUP2 ISZERO PUSH2 0x2118 JUMPI DUP2 PUSH1 0x0 PUSH32 0xFFFFFFFF00000001000000000000000000000000FFFFFFFFFFFFFFFFFFFFFFFF DUP5 DUP2 DUP1 SWAP7 GT PUSH2 0x210E JUMPI JUMPDEST POP POP PUSH1 0x40 MLOAD SWAP2 PUSH1 0x20 DUP4 MSTORE PUSH1 0x20 DUP1 DUP5 ADD MSTORE PUSH1 0x20 PUSH1 0x40 DUP5 ADD MSTORE PUSH1 0x60 DUP4 ADD MSTORE PUSH32 0xFFFFFFFF00000001000000000000000000000000FFFFFFFFFFFFFFFFFFFFFFFD PUSH1 0x80 DUP4 ADD MSTORE DUP4 PUSH1 0xA0 DUP4 ADD MSTORE PUSH1 0x20 DUP3 PUSH1 0xC0 DUP2 PUSH1 0x5 PUSH32 0xFFFFFFFFFFFFFFFFFFFFFFFFFFFFFFFFFFFFFFFFFFFFFFFFFFFFFFFFFFFFFFFF STATICCALL ISZERO PUSH2 0x12A JUMPI POP DUP3 SWAP1 MLOAD DUP2 DUP1 DUP3 DUP1 MULMOD DUP1 SWAP8 MULMOD SWAP6 MULMOD SWAP1 MULMOD SWAP1 JUMP JUMPDEST MOD SWAP2 POP DUP4 CODESIZE PUSH2 0x2084 JUMP JUMPDEST POP POP SWAP1 POP PUSH1 0x0 SWAP1 PUSH1 0x0 SWAP1 JUMP JUMPDEST SWAP4 SWAP6 SWAP4 SWAP2 SWAP1 DUP2 PUSH2 0x2136 JUMPI POP POP POP SWAP3 SWAP2 SWAP1 JUMP JUMPDEST SWAP1 SWAP3 SWAP2 SWAP5 SWAP6 DUP7 ISZERO PUSH2 0x2237 JUMPI PUSH32 0xFFFFFFFF00000001000000000000000000000000FFFFFFFFFFFFFFFFFFFFFFFF SWAP6 DUP7 DUP6 DUP2 SWAP7 SWAP6 DUP3 DUP1 DUP4 DUP2 SWAP10 MULMOD SWAP12 DUP2 DUP14 SWAP10 SWAP8 DUP2 DUP7 DUP2 DUP1 DUP1 DUP16 SWAP14 DUP9 DUP1 MULMOD DUP1 SWAP14 MULMOD SWAP13 DUP14 SWAP10 MULMOD SWAP13 DUP2 DUP8 DUP14 MULMOD SWAP1 MULMOD SWAP13 MULMOD SWAP1 MULMOD SWAP4 ADDMOD SWAP6 DUP2 DUP2 LT PUSH2 0x2230 JUMPI JUMPDEST SUB SWAP6 DUP3 DUP1 DUP1 DUP10 PUSH1 0x2 MULMOD DUP1 MULMOD SWAP3 DUP2 DUP1 DUP5 DUP2 DUP8 DUP14 MULMOD SWAP4 DUP2 DUP2 LT PUSH2 0x2229 JUMPI JUMPDEST SUB PUSH1 0x2 MULMOD SWAP5 DUP2 DUP7 DUP1 MULMOD SWAP9 MULMOD SWAP7 DUP3 DUP1 DUP10 PUSH1 0x2 MULMOD DUP4 ADDMOD SWAP1 DUP2 DUP2 LT PUSH2 0x2222 JUMPI JUMPDEST SUB SWAP12 DUP13 SWAP4 PUSH1 0x2 MULMOD MULMOD SWAP5 DUP2 DUP2 LT PUSH2 0x221B JUMPI JUMPDEST SUB SWAP1 MULMOD SWAP8 DUP3 DUP10 LT PUSH2 0x2212 JUMPI JUMPDEST DUP6 SWAP2 DUP3 SWAP2 ADDMOD SWAP3 DUP1 MULMOD SWAP6 DUP3 DUP8 LT PUSH2 0x2209 JUMPI JUMPDEST SWAP7 SUB SWAP5 SUB MULMOD SWAP1 JUMP JUMPDEST SWAP6 DUP5 ADD SWAP6 PUSH2 0x2201 JUMP JUMPDEST SWAP8 DUP6 ADD SWAP8 PUSH2 0x21F0 JUMP JUMPDEST DUP4 ADD PUSH2 0x21E4 JUMP JUMPDEST DUP4 ADD PUSH2 0x21D3 JUMP JUMPDEST DUP3 ADD PUSH2 0x21B6 JUMP JUMPDEST DUP4 ADD PUSH2 0x219A JUMP JUMPDEST POP SWAP5 POP POP SWAP2 SWAP3 SWAP2 SWAP1 JUMP JUMPDEST SWAP3 SWAP1 SWAP2 PUSH32 0xFFFFFFFF00000001000000000000000000000000FFFFFFFFFFFFFFFFFFFFFFFF DUP1 SWAP2 DUP2 DUP6 DUP1 MULMOD SWAP6 DUP3 DUP1 DUP1 DUP1 DUP1 DUP1 DUP13 DUP8 MULMOD PUSH1 0x4 MULMOD SWAP11 DUP1 MULMOD PUSH1 0x8 MULMOD SWAP3 DUP2 DUP1 DUP1 DUP1 DUP1 DUP10 DUP1 MULMOD DUP1 MULMOD PUSH32 0xFFFFFFFF00000001000000000000000000000000FFFFFFFFFFFFFFFFFFFFFFFC MULMOD SWAP3 DUP1 MULMOD PUSH1 0x3 MULMOD ADDMOD DUP2 DUP10 PUSH1 0x2 MULMOD DUP3 DUP3 DUP1 MULMOD DUP2 DUP2 LT PUSH2 0x22F0 JUMPI JUMPDEST SUB DUP10 DUP2 DUP1 SWAP12 LT PUSH2 0x22E9 JUMPI JUMPDEST SUB SWAP1 MULMOD DUP2 DUP2 LT PUSH2 0x22E2 JUMPI JUMPDEST SUB SWAP5 MULMOD PUSH1 0x2 MULMOD SWAP1 JUMP JUMPDEST DUP4 ADD PUSH2 0x22D9 JUMP JUMPDEST DUP4 ADD PUSH2 0x22CE JUMP JUMPDEST DUP4 ADD PUSH2 0x22C3 JUMP JUMPDEST PUSH32 0xFFFFFFFF00000000FFFFFFFFFFFFFFFFBCE6FAADA7179E84F3B9CAC2FC632551 DUP1 DUP3 GT PUSH2 0x2398 JUMPI JUMPDEST PUSH1 0x40 MLOAD SWAP2 PUSH1 0x20 DUP4 MSTORE PUSH1 0x20 DUP1 DUP5 ADD MSTORE PUSH1 0x20 PUSH1 0x40 DUP5 ADD MSTORE PUSH1 0x60 DUP4 ADD MSTORE PUSH32 0xFFFFFFFF00000000FFFFFFFFFFFFFFFFBCE6FAADA7179E84F3B9CAC2FC63254F PUSH1 0x80 DUP4 ADD MSTORE PUSH1 0xA0 DUP3 ADD MSTORE PUSH1 0x20 DUP2 PUSH1 0xC0 DUP2 PUSH1 0x5 PUSH32 0xFFFFFFFFFFFFFFFFFFFFFFFFFFFFFFFFFFFFFFFFFFFFFFFFFFFFFFFFFFFFFFFF STATICCALL ISZERO PUSH2 0x25A JUMPI MLOAD SWAP1 JUMP JUMPDEST DUP1 SWAP2 MOD SWAP1 PUSH2 0x2320 JUMP INVALID LOG1 PUSH5 0x736F6C6343 STOP ADDMOD SGT STOP EXP "
        },
        "gasEstimates": {
          "creation": {
            "codeDepositCost": "1826800",
            "executionCost": "27270",
            "totalCost": "1854070"
          },
          "external": {
            "entrypoint((uint256,bytes,uint256,bytes))": "infinite",
            "getAddressOwner()": "2323",
            "getPassKeyOwner()": "infinite",
            "getUserOpHash((uint256,bytes,uint256,bytes))": "infinite",
            "initialize((uint256,uint256,string))": "infinite",
            "passKeyOwnerEnabled()": "2345"
          },
          "internal": {
            "_call(address,uint256,bytes memory)": "infinite",
            "_changeAddressOwner(address)": "infinite",
            "_changePassKeyOwner(struct PassKeyId memory)": "infinite",
            "_initialize(struct PassKeyId memory)": "infinite",
            "_validateNonce(struct UserOp calldata)": "2147",
            "_validateUserOp(struct UserOp calldata)": "infinite",
            "changeOwnershipToAddress(bytes memory)": "infinite",
            "changeOwnershipToPassKeyAddress(bytes memory)": "infinite",
            "execute(bytes memory)": "infinite",
            "executeBatch(bytes memory)": "infinite",
            "validatePassKeySig(bytes memory,bytes32,struct PassKeyId memory)": "infinite"
          }
        },
        "methodIdentifiers": {
          "entrypoint((uint256,bytes,uint256,bytes))": "f0f05cef",
          "getAddressOwner()": "b627e20f",
          "getPassKeyOwner()": "8fb41072",
          "getUserOpHash((uint256,bytes,uint256,bytes))": "fd5c8d72",
          "initialize((uint256,uint256,string))": "759a68c0",
          "passKeyOwnerEnabled()": "be9ef843"
        }
      },
      "storageLayout": {
        "storage": [
          {
            "astId": 6,
            "contract": "contracts/aa/Account.sol:Account",
            "label": "_initialized",
            "offset": 0,
            "slot": "0",
            "type": "t_uint8"
          },
          {
            "astId": 9,
            "contract": "contracts/aa/Account.sol:Account",
            "label": "_initializing",
            "offset": 1,
            "slot": "0",
            "type": "t_bool"
          },
          {
            "astId": 2113,
            "contract": "contracts/aa/Account.sol:Account",
            "label": "addressOwner",
            "offset": 2,
            "slot": "0",
            "type": "t_address"
          },
          {
            "astId": 2116,
            "contract": "contracts/aa/Account.sol:Account",
            "label": "passKeyOwner",
            "offset": 0,
            "slot": "1",
            "type": "t_struct(PassKeyId)2812_storage"
          },
          {
            "astId": 2118,
            "contract": "contracts/aa/Account.sol:Account",
            "label": "isPassKeyOwnerEnabled",
            "offset": 0,
            "slot": "4",
            "type": "t_bool"
          },
          {
            "astId": 2120,
            "contract": "contracts/aa/Account.sol:Account",
            "label": "nonce",
            "offset": 0,
            "slot": "5",
            "type": "t_uint256"
          }
        ],
        "types": {
          "t_address": {
            "encoding": "inplace",
            "label": "address",
            "numberOfBytes": "20"
          },
          "t_bool": {
            "encoding": "inplace",
            "label": "bool",
            "numberOfBytes": "1"
          },
          "t_string_storage": {
            "encoding": "bytes",
            "label": "string",
            "numberOfBytes": "32"
          },
          "t_struct(PassKeyId)2812_storage": {
            "encoding": "inplace",
            "label": "struct PassKeyId",
            "members": [
              {
                "astId": 2807,
                "contract": "contracts/aa/Account.sol:Account",
                "label": "pubKeyX",
                "offset": 0,
                "slot": "0",
                "type": "t_uint256"
              },
              {
                "astId": 2809,
                "contract": "contracts/aa/Account.sol:Account",
                "label": "pubKeyY",
                "offset": 0,
                "slot": "1",
                "type": "t_uint256"
              },
              {
                "astId": 2811,
                "contract": "contracts/aa/Account.sol:Account",
                "label": "keyId",
                "offset": 0,
                "slot": "2",
                "type": "t_string_storage"
              }
            ],
            "numberOfBytes": "96"
          },
          "t_uint256": {
            "encoding": "inplace",
            "label": "uint256",
            "numberOfBytes": "32"
          },
          "t_uint8": {
            "encoding": "inplace",
            "label": "uint8",
            "numberOfBytes": "1"
          }
        }
      },
      "userdoc": {
        "kind": "user",
        "methods": {},
        "version": 1
      }
    }
  }
}