{
  "contracts/aa/Swapper.sol": {
    "Swapper": {
      "abi": [
        {
          "inputs": [
            {
              "internalType": "address",
              "name": "busd",
              "type": "address"
            }
          ],
          "stateMutability": "nonpayable",
          "type": "constructor"
        },
        {
          "inputs": [
            {
              "internalType": "uint256",
              "name": "amountBNB",
              "type": "uint256"
            },
            {
              "internalType": "uint256",
              "name": "amountBUSD",
              "type": "uint256"
            }
          ],
          "name": "swapBNBToBUSD",
          "outputs": [],
          "stateMutability": "payable",
          "type": "function"
        },
        {
          "inputs": [
            {
              "internalType": "uint256",
              "name": "amountBUSD",
              "type": "uint256"
            },
            {
              "internalType": "uint256",
              "name": "amountBNB",
              "type": "uint256"
            }
          ],
          "name": "swapBUSDToBNB",
          "outputs": [],
          "stateMutability": "payable",
          "type": "function"
        },
        {
          "inputs": [],
          "name": "transferBNB",
          "outputs": [],
          "stateMutability": "nonpayable",
          "type": "function"
        },
        {
          "inputs": [],
          "name": "transferBUSD",
          "outputs": [],
          "stateMutability": "nonpayable",
          "type": "function"
        },
        {
          "stateMutability": "payable",
          "type": "receive"
        }
      ],
      "devdoc": {
        "kind": "dev",
        "methods": {},
        "version": 1
      },
      "evm": {
        "bytecode": {
          "linkReferences": {},
          "object": "60803461007a57601f6106cd38819003918201601f19168301916001600160401b0383118484101761007f5780849260209460405283398101031261007a57516001600160a01b0381169081900361007a5760018060a01b031933816000541617600055600154161760015560405161063790816100968239f35b600080fd5b634e487b7160e01b600052604160045260246000fdfe60406080815260049081361015610020575b5050361561001e57600080fd5b005b600091823560e01c9083826320507ebb1461038257508163ab27021e14610245578163c4f90e1d146100d7575063eefd3d9a0361001157346100d357817ffffffffffffffffffffffffffffffffffffffffffffffffffffffffffffffffc3601126100d3578180808073ffffffffffffffffffffffffffffffffffffffff8154166100ac8133146105c5565b47908282156100ca575bf1156100c0575080f35b51903d90823e3d90fd5b506108fc6100b6565b5080fd5b90503461024157827ffffffffffffffffffffffffffffffffffffffffffffffffffffffffffffffffc3601126102415773ffffffffffffffffffffffffffffffffffffffff91828454169261012d8433146105c5565b60015416928151927f70a082310000000000000000000000000000000000000000000000000000000084523081850152856020958686602481845afa9586156102375790829188959493976101fd575b509060449291865197889586947fa9059cbb00000000000000000000000000000000000000000000000000000000865285015260248401525af19081156101f457506101c7578280f35b816101e692903d106101ed575b6101de818361053d565b8101906105ad565b5038808280f35b503d6101d4565b513d85823e3d90fd5b85819493969298503d8311610230575b610217818361053d565b8101031261022c57905194869390604461017d565b8380fd5b503d61020d565b85513d84823e3d90fd5b8280fd5b83915061025136610479565b9173ffffffffffffffffffffffffffffffffffffffff80855416926102778432146104b2565b340361032557928592602092866102ed9660015416928651978895869485937f23b872dd0000000000000000000000000000000000000000000000000000000085523391850160409194939294606082019573ffffffffffffffffffffffffffffffffffffffff80921683521660208201520152565b03925af190811561031c5750610301575080f35b6103189060203d81116101ed576101de818361053d565b5080f35b513d84823e3d90fd5b60648260208851917f08c379a0000000000000000000000000000000000000000000000000000000008352820152601760248201527f496e76616c6964205472616e7366657220616d6f756e740000000000000000006044820152fd5b915061041e602061039236610479565b9373ffffffffffffffffffffffffffffffffffffffff8681815416916103b98332146104b2565b60015416928951968795869485937f23b872dd0000000000000000000000000000000000000000000000000000000085523390850160409194939294606082019573ffffffffffffffffffffffffffffffffffffffff80921683521660208201520152565b03925af1801561046f57839283928392610451575b50818115610448575b3390f1156100c0575080f35b506108fc61043c565b6104689060203d81116101ed576101de818361053d565b5038610433565b84513d85823e3d90fd5b7ffffffffffffffffffffffffffffffffffffffffffffffffffffffffffffffffc60409101126104ad576004359060243590565b600080fd5b156104b957565b60846040517f08c379a000000000000000000000000000000000000000000000000000000000815260206004820152602260248201527f537761707065723a205478206e6f7420696e69746961746564206279206f776e60448201527f65720000000000000000000000000000000000000000000000000000000000006064820152fd5b90601f7fffffffffffffffffffffffffffffffffffffffffffffffffffffffffffffffe0910116810190811067ffffffffffffffff82111761057e57604052565b7f4e487b7100000000000000000000000000000000000000000000000000000000600052604160045260246000fd5b908160209103126104ad575180151581036104ad5790565b156105cc57565b60646040517f08c379a000000000000000000000000000000000000000000000000000000000815260206004820152601960248201527f537761707065723a2053656e646572206e6f74206f776e6572000000000000006044820152fdfea164736f6c6343000813000a",
          "opcodes": "PUSH1 0x80 CALLVALUE PUSH2 0x7A JUMPI PUSH1 0x1F PUSH2 0x6CD CODESIZE DUP2 SWAP1 SUB SWAP2 DUP3 ADD PUSH1 0x1F NOT AND DUP4 ADD SWAP2 PUSH1 0x1 PUSH1 0x1 PUSH1 0x40 SHL SUB DUP4 GT DUP5 DUP5 LT OR PUSH2 0x7F JUMPI DUP1 DUP5 SWAP3 PUSH1 0x20 SWAP5 PUSH1 0x40 MSTORE DUP4 CODECOPY DUP2 ADD SUB SLT PUSH2 0x7A JUMPI MLOAD PUSH1 0x1 PUSH1 0x1 PUSH1 0xA0 SHL SUB DUP2 AND SWAP1 DUP2 SWAP1 SUB PUSH2 0x7A JUMPI PUSH1 0x1 DUP1 PUSH1 0xA0 SHL SUB NOT CALLER DUP2 PUSH1 0x0 SLOAD AND OR PUSH1 0x0 SSTORE PUSH1 0x1 SLOAD AND OR PUSH1 0x1 SSTORE PUSH1 0x40 MLOAD PUSH2 0x637 SWAP1 DUP2 PUSH2 0x96 DUP3 CODECOPY RETURN JUMPDEST PUSH1 0x0 DUP1 REVERT JUMPDEST PUSH4 0x4E487B71 PUSH1 0xE0 SHL PUSH1 0x0 MSTORE PUSH1 0x41 PUSH1 0x4 MSTORE PUSH1 0x24 PUSH1 0x0 REVERT INVALID PUSH1 0x40 PUSH1 0x80 DUP2 MSTORE PUSH1 0x4 SWAP1 DUP2 CALLDATASIZE LT ISZERO PUSH2 0x20 JUMPI JUMPDEST POP POP CALLDATASIZE ISZERO PUSH2 0x1E JUMPI PUSH1 0x0 DUP1 REVERT JUMPDEST STOP JUMPDEST PUSH1 0x0 SWAP2 DUP3 CALLDATALOAD PUSH1 0xE0 SHR SWAP1 DUP4 DUP3 PUSH4 0x20507EBB EQ PUSH2 0x382 JUMPI POP DUP2 PUSH4 0xAB27021E EQ PUSH2 0x245 JUMPI DUP2 PUSH4 0xC4F90E1D EQ PUSH2 0xD7 JUMPI POP PUSH4 0xEEFD3D9A SUB PUSH2 0x11 JUMPI CALLVALUE PUSH2 0xD3 JUMPI DUP2 PUSH32 0xFFFFFFFFFFFFFFFFFFFFFFFFFFFFFFFFFFFFFFFFFFFFFFFFFFFFFFFFFFFFFFFC CALLDATASIZE ADD SLT PUSH2 0xD3 JUMPI DUP2 DUP1 DUP1 DUP1 PUSH20 0xFFFFFFFFFFFFFFFFFFFFFFFFFFFFFFFFFFFFFFFF DUP2 SLOAD AND PUSH2 0xAC DUP2 CALLER EQ PUSH2 0x5C5 JUMP JUMPDEST SELFBALANCE SWAP1 DUP3 DUP3 ISZERO PUSH2 0xCA JUMPI JUMPDEST CALL ISZERO PUSH2 0xC0 JUMPI POP DUP1 RETURN JUMPDEST MLOAD SWAP1 RETURNDATASIZE SWAP1 DUP3 RETURNDATACOPY RETURNDATASIZE SWAP1 REVERT JUMPDEST POP PUSH2 0x8FC PUSH2 0xB6 JUMP JUMPDEST POP DUP1 REVERT JUMPDEST SWAP1 POP CALLVALUE PUSH2 0x241 JUMPI DUP3 PUSH32 0xFFFFFFFFFFFFFFFFFFFFFFFFFFFFFFFFFFFFFFFFFFFFFFFFFFFFFFFFFFFFFFFC CALLDATASIZE ADD SLT PUSH2 0x241 JUMPI PUSH20 0xFFFFFFFFFFFFFFFFFFFFFFFFFFFFFFFFFFFFFFFF SWAP2 DUP3 DUP5 SLOAD AND SWAP3 PUSH2 0x12D DUP5 CALLER EQ PUSH2 0x5C5 JUMP JUMPDEST PUSH1 0x1 SLOAD AND SWAP3 DUP2 MLOAD SWAP3 PUSH32 0x70A0823100000000000000000000000000000000000000000000000000000000 DUP5 MSTORE ADDRESS DUP2 DUP6 ADD MSTORE DUP6 PUSH1 0x20 SWAP6 DUP7 DUP7 PUSH1 0x24 DUP2 DUP5 GAS STATICCALL SWAP6 DUP7 ISZERO PUSH2 0x237 JUMPI SWAP1 DUP3 SWAP2 DUP9 SWAP6 SWAP5 SWAP4 SWAP8 PUSH2 0x1FD JUMPI JUMPDEST POP SWAP1 PUSH1 0x44 SWAP3 SWAP2 DUP7 MLOAD SWAP8 DUP9 SWAP6 DUP7 SWAP5 PUSH32 0xA9059CBB00000000000000000000000000000000000000000000000000000000 DUP7 MSTORE DUP6 ADD MSTORE PUSH1 0x24 DUP5 ADD MSTORE GAS CALL SWAP1 DUP2 ISZERO PUSH2 0x1F4 JUMPI POP PUSH2 0x1C7 JUMPI DUP3 DUP1 RETURN JUMPDEST DUP2 PUSH2 0x1E6 SWAP3 SWAP1 RETURNDATASIZE LT PUSH2 0x1ED JUMPI JUMPDEST PUSH2 0x1DE DUP2 DUP4 PUSH2 0x53D JUMP JUMPDEST DUP2 ADD SWAP1 PUSH2 0x5AD JUMP JUMPDEST POP CODESIZE DUP1 DUP3 DUP1 RETURN JUMPDEST POP RETURNDATASIZE PUSH2 0x1D4 JUMP JUMPDEST MLOAD RETURNDATASIZE DUP6 DUP3 RETURNDATACOPY RETURNDATASIZE SWAP1 REVERT JUMPDEST DUP6 DUP2 SWAP5 SWAP4 SWAP7 SWAP3 SWAP9 POP RETURNDATASIZE DUP4 GT PUSH2 0x230 JUMPI JUMPDEST PUSH2 0x217 DUP2 DUP4 PUSH2 0x53D JUMP JUMPDEST DUP2 ADD SUB SLT PUSH2 0x22C JUMPI SWAP1 MLOAD SWAP5 DUP7 SWAP4 SWAP1 PUSH1 0x44 PUSH2 0x17D JUMP JUMPDEST DUP4 DUP1 REVERT JUMPDEST POP RETURNDATASIZE PUSH2 0x20D JUMP JUMPDEST DUP6 MLOAD RETURNDATASIZE DUP5 DUP3 RETURNDATACOPY RETURNDATASIZE SWAP1 REVERT JUMPDEST DUP3 DUP1 REVERT JUMPDEST DUP4 SWAP2 POP PUSH2 0x251 CALLDATASIZE PUSH2 0x479 JUMP JUMPDEST SWAP2 PUSH20 0xFFFFFFFFFFFFFFFFFFFFFFFFFFFFFFFFFFFFFFFF DUP1 DUP6 SLOAD AND SWAP3 PUSH2 0x277 DUP5 ORIGIN EQ PUSH2 0x4B2 JUMP JUMPDEST CALLVALUE SUB PUSH2 0x325 JUMPI SWAP3 DUP6 SWAP3 PUSH1 0x20 SWAP3 DUP7 PUSH2 0x2ED SWAP7 PUSH1 0x1 SLOAD AND SWAP3 DUP7 MLOAD SWAP8 DUP9 SWAP6 DUP7 SWAP5 DUP6 SWAP4 PUSH32 0x23B872DD00000000000000000000000000000000000000000000000000000000 DUP6 MSTORE CALLER SWAP2 DUP6 ADD PUSH1 0x40 SWAP2 SWAP5 SWAP4 SWAP3 SWAP5 PUSH1 0x60 DUP3 ADD SWAP6 PUSH20 0xFFFFFFFFFFFFFFFFFFFFFFFFFFFFFFFFFFFFFFFF DUP1 SWAP3 AND DUP4 MSTORE AND PUSH1 0x20 DUP3 ADD MSTORE ADD MSTORE JUMP JUMPDEST SUB SWAP3 GAS CALL SWAP1 DUP2 ISZERO PUSH2 0x31C JUMPI POP PUSH2 0x301 JUMPI POP DUP1 RETURN JUMPDEST PUSH2 0x318 SWAP1 PUSH1 0x20 RETURNDATASIZE DUP2 GT PUSH2 0x1ED JUMPI PUSH2 0x1DE DUP2 DUP4 PUSH2 0x53D JUMP JUMPDEST POP DUP1 RETURN JUMPDEST MLOAD RETURNDATASIZE DUP5 DUP3 RETURNDATACOPY RETURNDATASIZE SWAP1 REVERT JUMPDEST PUSH1 0x64 DUP3 PUSH1 0x20 DUP9 MLOAD SWAP2 PUSH32 0x8C379A000000000000000000000000000000000000000000000000000000000 DUP4 MSTORE DUP3 ADD MSTORE PUSH1 0x17 PUSH1 0x24 DUP3 ADD MSTORE PUSH32 0x496E76616C6964205472616E7366657220616D6F756E74000000000000000000 PUSH1 0x44 DUP3 ADD MSTORE REVERT JUMPDEST SWAP2 POP PUSH2 0x41E PUSH1 0x20 PUSH2 0x392 CALLDATASIZE PUSH2 0x479 JUMP JUMPDEST SWAP4 PUSH20 0xFFFFFFFFFFFFFFFFFFFFFFFFFFFFFFFFFFFFFFFF DUP7 DUP2 DUP2 SLOAD AND SWAP2 PUSH2 0x3B9 DUP4 ORIGIN EQ PUSH2 0x4B2 JUMP JUMPDEST PUSH1 0x1 SLOAD AND SWAP3 DUP10 MLOAD SWAP7 DUP8 SWAP6 DUP7 SWAP5 DUP6 SWAP4 PUSH32 0x23B872DD00000000000000000000000000000000000000000000000000000000 DUP6 MSTORE CALLER SWAP1 DUP6 ADD PUSH1 0x40 SWAP2 SWAP5 SWAP4 SWAP3 SWAP5 PUSH1 0x60 DUP3 ADD SWAP6 PUSH20 0xFFFFFFFFFFFFFFFFFFFFFFFFFFFFFFFFFFFFFFFF DUP1 SWAP3 AND DUP4 MSTORE AND PUSH1 0x20 DUP3 ADD MSTORE ADD MSTORE JUMP JUMPDEST SUB SWAP3 GAS CALL DUP1 ISZERO PUSH2 0x46F JUMPI DUP4 SWAP3 DUP4 SWAP3 DUP4 SWAP3 PUSH2 0x451 JUMPI JUMPDEST POP DUP2 DUP2 ISZERO PUSH2 0x448 JUMPI JUMPDEST CALLER SWAP1 CALL ISZERO PUSH2 0xC0 JUMPI POP DUP1 RETURN JUMPDEST POP PUSH2 0x8FC PUSH2 0x43C JUMP JUMPDEST PUSH2 0x468 SWAP1 PUSH1 0x20 RETURNDATASIZE DUP2 GT PUSH2 0x1ED JUMPI PUSH2 0x1DE DUP2 DUP4 PUSH2 0x53D JUMP JUMPDEST POP CODESIZE PUSH2 0x433 JUMP JUMPDEST DUP5 MLOAD RETURNDATASIZE DUP6 DUP3 RETURNDATACOPY RETURNDATASIZE SWAP1 REVERT JUMPDEST PUSH32 0xFFFFFFFFFFFFFFFFFFFFFFFFFFFFFFFFFFFFFFFFFFFFFFFFFFFFFFFFFFFFFFFC PUSH1 0x40 SWAP2 ADD SLT PUSH2 0x4AD JUMPI PUSH1 0x4 CALLDATALOAD SWAP1 PUSH1 0x24 CALLDATALOAD SWAP1 JUMP JUMPDEST PUSH1 0x0 DUP1 REVERT JUMPDEST ISZERO PUSH2 0x4B9 JUMPI JUMP JUMPDEST PUSH1 0x84 PUSH1 0x40 MLOAD PUSH32 0x8C379A000000000000000000000000000000000000000000000000000000000 DUP2 MSTORE PUSH1 0x20 PUSH1 0x4 DUP3 ADD MSTORE PUSH1 0x22 PUSH1 0x24 DUP3 ADD MSTORE PUSH32 0x537761707065723A205478206E6F7420696E69746961746564206279206F776E PUSH1 0x44 DUP3 ADD MSTORE PUSH32 0x6572000000000000000000000000000000000000000000000000000000000000 PUSH1 0x64 DUP3 ADD MSTORE REVERT JUMPDEST SWAP1 PUSH1 0x1F PUSH32 0xFFFFFFFFFFFFFFFFFFFFFFFFFFFFFFFFFFFFFFFFFFFFFFFFFFFFFFFFFFFFFFE0 SWAP2 ADD AND DUP2 ADD SWAP1 DUP2 LT PUSH8 0xFFFFFFFFFFFFFFFF DUP3 GT OR PUSH2 0x57E JUMPI PUSH1 0x40 MSTORE JUMP JUMPDEST PUSH32 0x4E487B7100000000000000000000000000000000000000000000000000000000 PUSH1 0x0 MSTORE PUSH1 0x41 PUSH1 0x4 MSTORE PUSH1 0x24 PUSH1 0x0 REVERT JUMPDEST SWAP1 DUP2 PUSH1 0x20 SWAP2 SUB SLT PUSH2 0x4AD JUMPI MLOAD DUP1 ISZERO ISZERO DUP2 SUB PUSH2 0x4AD JUMPI SWAP1 JUMP JUMPDEST ISZERO PUSH2 0x5CC JUMPI JUMP JUMPDEST PUSH1 0x64 PUSH1 0x40 MLOAD PUSH32 0x8C379A000000000000000000000000000000000000000000000000000000000 DUP2 MSTORE PUSH1 0x20 PUSH1 0x4 DUP3 ADD MSTORE PUSH1 0x19 PUSH1 0x24 DUP3 ADD MSTORE PUSH32 0x537761707065723A2053656E646572206E6F74206F776E657200000000000000 PUSH1 0x44 DUP3 ADD MSTORE REVERT INVALID LOG1 PUSH5 0x736F6C6343 STOP ADDMOD SGT STOP EXP "
        },
        "gasEstimates": {
          "creation": {
            "codeDepositCost": "318200",
            "executionCost": "infinite",
            "totalCost": "infinite"
          },
          "external": {
            "swapBNBToBUSD(uint256,uint256)": "infinite",
            "swapBUSDToBNB(uint256,uint256)": "infinite",
            "transferBNB()": "infinite",
            "transferBUSD()": "infinite"
          }
        },
        "methodIdentifiers": {
          "swapBNBToBUSD(uint256,uint256)": "ab27021e",
          "swapBUSDToBNB(uint256,uint256)": "20507ebb",
          "transferBNB()": "eefd3d9a",
          "transferBUSD()": "c4f90e1d"
        }
      },
      "storageLayout": {
        "storage": [
          {
            "astId": 738,
            "contract": "contracts/aa/Swapper.sol:Swapper",
            "label": "owner",
            "offset": 0,
            "slot": "0",
            "type": "t_address"
          },
          {
            "astId": 741,
            "contract": "contracts/aa/Swapper.sol:Swapper",
            "label": "busdToken",
            "offset": 0,
            "slot": "1",
            "type": "t_contract(BUSD)733"
          }
        ],
        "types": {
          "t_address": {
            "encoding": "inplace",
            "label": "address",
            "numberOfBytes": "20"
          },
          "t_contract(BUSD)733": {
            "encoding": "inplace",
            "label": "contract BUSD",
            "numberOfBytes": "20"
          }
        }
      },
      "userdoc": {
        "kind": "user",
        "methods": {},
        "version": 1
      }
    }
  }
}